{
  "contractName": "ProductRegistry",
  "abi": [
    {
      "inputs": [
        {
          "internalType": "string",
          "name": "",
          "type": "string"
        }
      ],
      "name": "products",
      "outputs": [
        {
          "internalType": "string",
          "name": "manufacturerID",
          "type": "string"
        },
        {
          "internalType": "string",
          "name": "productName",
          "type": "string"
        },
        {
          "internalType": "string",
          "name": "productSN",
          "type": "string"
        },
        {
          "internalType": "string",
          "name": "productBrand",
          "type": "string"
        },
        {
          "internalType": "uint256",
          "name": "productPrice",
          "type": "uint256"
        },
        {
          "internalType": "address",
          "name": "manufacturer",
          "type": "address"
        }
      ],
      "stateMutability": "view",
      "type": "function",
      "constant": true
    },
    {
      "inputs": [
        {
          "internalType": "string",
          "name": "_manufacturerID",
          "type": "string"
        },
        {
          "internalType": "string",
          "name": "_productName",
          "type": "string"
        },
        {
          "internalType": "string",
          "name": "_productSN",
          "type": "string"
        },
        {
          "internalType": "string",
          "name": "_productBrand",
          "type": "string"
        },
        {
          "internalType": "uint256",
          "name": "_productPrice",
          "type": "uint256"
        }
      ],
      "name": "registerProduct",
      "outputs": [],
      "stateMutability": "nonpayable",
      "type": "function"
    },
    {
      "inputs": [
        {
          "internalType": "string",
          "name": "_productSN",
          "type": "string"
        }
      ],
      "name": "getProduct",
      "outputs": [
        {
          "internalType": "string",
          "name": "",
          "type": "string"
        },
        {
          "internalType": "string",
          "name": "",
          "type": "string"
        },
        {
          "internalType": "string",
          "name": "",
          "type": "string"
        },
        {
          "internalType": "string",
          "name": "",
          "type": "string"
        },
        {
          "internalType": "uint256",
          "name": "",
          "type": "uint256"
        },
        {
          "internalType": "address",
          "name": "",
          "type": "address"
        }
      ],
      "stateMutability": "view",
      "type": "function",
      "constant": true
    }
  ],
  "bytecode": "0x608060405234801561000f575f80fd5b50610f9f8061001d5f395ff3fe608060405234801561000f575f80fd5b506004361061003f575f3560e01c80630186a4231461004357806368111cce14610078578063a18c1fab146100ad575b5f80fd5b61005d6004803603810190610058919061091e565b6100c9565b60405161006f96959493929190610a36565b60405180910390f35b610092600480360381019061008d919061091e565b61034f565b6040516100a496959493929190610a36565b60405180910390f35b6100c760048036038101906100c29190610adb565b610653565b005b5f818051602081018201805184825260208301602085012081835280955050505050505f91509050805f0180546100ff90610bef565b80601f016020809104026020016040519081016040528092919081815260200182805461012b90610bef565b80156101765780601f1061014d57610100808354040283529160200191610176565b820191905f5260205f20905b81548152906001019060200180831161015957829003601f168201915b50505050509080600101805461018b90610bef565b80601f01602080910402602001604051908101604052809291908181526020018280546101b790610bef565b80156102025780601f106101d957610100808354040283529160200191610202565b820191905f5260205f20905b8154815290600101906020018083116101e557829003601f168201915b50505050509080600201805461021790610bef565b80601f016020809104026020016040519081016040528092919081815260200182805461024390610bef565b801561028e5780601f106102655761010080835404028352916020019161028e565b820191905f5260205f20905b81548152906001019060200180831161027157829003601f168201915b5050505050908060030180546102a390610bef565b80601f01602080910402602001604051908101604052809291908181526020018280546102cf90610bef565b801561031a5780601f106102f15761010080835404028352916020019161031a565b820191905f5260205f20905b8154815290600101906020018083116102fd57829003601f168201915b505050505090806004015490806005015f9054906101000a900473ffffffffffffffffffffffffffffffffffffffff16905086565b6060806060805f805f80886040516103679190610c59565b90815260200160405180910390206040518060c00160405290815f8201805461038f90610bef565b80601f01602080910402602001604051908101604052809291908181526020018280546103bb90610bef565b80156104065780601f106103dd57610100808354040283529160200191610406565b820191905f5260205f20905b8154815290600101906020018083116103e957829003601f168201915b5050505050815260200160018201805461041f90610bef565b80601f016020809104026020016040519081016040528092919081815260200182805461044b90610bef565b80156104965780601f1061046d57610100808354040283529160200191610496565b820191905f5260205f20905b81548152906001019060200180831161047957829003601f168201915b505050505081526020016002820180546104af90610bef565b80601f01602080910402602001604051908101604052809291908181526020018280546104db90610bef565b80156105265780601f106104fd57610100808354040283529160200191610526565b820191905f5260205f20905b81548152906001019060200180831161050957829003601f168201915b5050505050815260200160038201805461053f90610bef565b80601f016020809104026020016040519081016040528092919081815260200182805461056b90610bef565b80156105b65780601f1061058d576101008083540402835291602001916105b6565b820191905f5260205f20905b81548152906001019060200180831161059957829003601f168201915b5050505050815260200160048201548152602001600582015f9054906101000a900473ffffffffffffffffffffffffffffffffffffffff1673ffffffffffffffffffffffffffffffffffffffff1673ffffffffffffffffffffffffffffffffffffffff16815250509050805f015181602001518260400151836060015184608001518560a001519650965096509650965096505091939550919395565b5f80846040516106639190610c59565b9081526020016040518091039020600201805461067f90610bef565b9050146106c1576040517f08c379a00000000000000000000000000000000000000000000000000000000081526004016106b890610cdf565b60405180910390fd5b6040518060c001604052808681526020018581526020018481526020018381526020018281526020013373ffffffffffffffffffffffffffffffffffffffff168152505f846040516107139190610c59565b90815260200160405180910390205f820151815f0190816107349190610e9a565b50602082015181600101908161074a9190610e9a565b5060408201518160020190816107609190610e9a565b5060608201518160030190816107769190610e9a565b506080820151816004015560a0820151816005015f6101000a81548173ffffffffffffffffffffffffffffffffffffffff021916908373ffffffffffffffffffffffffffffffffffffffff1602179055509050505050505050565b5f604051905090565b5f80fd5b5f80fd5b5f80fd5b5f80fd5b5f601f19601f8301169050919050565b7f4e487b71000000000000000000000000000000000000000000000000000000005f52604160045260245ffd5b610830826107ea565b810181811067ffffffffffffffff8211171561084f5761084e6107fa565b5b80604052505050565b5f6108616107d1565b905061086d8282610827565b919050565b5f67ffffffffffffffff82111561088c5761088b6107fa565b5b610895826107ea565b9050602081019050919050565b828183375f83830152505050565b5f6108c26108bd84610872565b610858565b9050828152602081018484840111156108de576108dd6107e6565b5b6108e98482856108a2565b509392505050565b5f82601f830112610905576109046107e2565b5b81356109158482602086016108b0565b91505092915050565b5f60208284031215610933576109326107da565b5b5f82013567ffffffffffffffff8111156109505761094f6107de565b5b61095c848285016108f1565b91505092915050565b5f81519050919050565b5f82825260208201905092915050565b5f5b8381101561099c578082015181840152602081019050610981565b5f8484015250505050565b5f6109b182610965565b6109bb818561096f565b93506109cb81856020860161097f565b6109d4816107ea565b840191505092915050565b5f819050919050565b6109f1816109df565b82525050565b5f73ffffffffffffffffffffffffffffffffffffffff82169050919050565b5f610a20826109f7565b9050919050565b610a3081610a16565b82525050565b5f60c0820190508181035f830152610a4e81896109a7565b90508181036020830152610a6281886109a7565b90508181036040830152610a7681876109a7565b90508181036060830152610a8a81866109a7565b9050610a9960808301856109e8565b610aa660a0830184610a27565b979650505050505050565b610aba816109df565b8114610ac4575f80fd5b50565b5f81359050610ad581610ab1565b92915050565b5f805f805f60a08688031215610af457610af36107da565b5b5f86013567ffffffffffffffff811115610b1157610b106107de565b5b610b1d888289016108f1565b955050602086013567ffffffffffffffff811115610b3e57610b3d6107de565b5b610b4a888289016108f1565b945050604086013567ffffffffffffffff811115610b6b57610b6a6107de565b5b610b77888289016108f1565b935050606086013567ffffffffffffffff811115610b9857610b976107de565b5b610ba4888289016108f1565b9250506080610bb588828901610ac7565b9150509295509295909350565b7f4e487b71000000000000000000000000000000000000000000000000000000005f52602260045260245ffd5b5f6002820490506001821680610c0657607f821691505b602082108103610c1957610c18610bc2565b5b50919050565b5f81905092915050565b5f610c3382610965565b610c3d8185610c1f565b9350610c4d81856020860161097f565b80840191505092915050565b5f610c648284610c29565b915081905092915050565b7f50726f64756374207769746820746869732053657269616c204e756d626572205f8201527f616c726561647920657869737473000000000000000000000000000000000000602082015250565b5f610cc9602e8361096f565b9150610cd482610c6f565b604082019050919050565b5f6020820190508181035f830152610cf681610cbd565b9050919050565b5f819050815f5260205f209050919050565b5f6020601f8301049050919050565b5f82821b905092915050565b5f60088302610d597fffffffffffffffffffffffffffffffffffffffffffffffffffffffffffffffff82610d1e565b610d638683610d1e565b95508019841693508086168417925050509392505050565b5f819050919050565b5f610d9e610d99610d94846109df565b610d7b565b6109df565b9050919050565b5f819050919050565b610db783610d84565b610dcb610dc382610da5565b848454610d2a565b825550505050565b5f90565b610ddf610dd3565b610dea818484610dae565b505050565b5b81811015610e0d57610e025f82610dd7565b600181019050610df0565b5050565b601f821115610e5257610e2381610cfd565b610e2c84610d0f565b81016020851015610e3b578190505b610e4f610e4785610d0f565b830182610def565b50505b505050565b5f82821c905092915050565b5f610e725f1984600802610e57565b1980831691505092915050565b5f610e8a8383610e63565b9150826002028217905092915050565b610ea382610965565b67ffffffffffffffff811115610ebc57610ebb6107fa565b5b610ec68254610bef565b610ed1828285610e11565b5f60209050601f831160018114610f02575f8415610ef0578287015190505b610efa8582610e7f565b865550610f61565b601f198416610f1086610cfd565b5f5b82811015610f3757848901518255600182019150602085019450602081019050610f12565b86831015610f545784890151610f50601f891682610e63565b8355505b6001600288020188555050505b50505050505056fea2646970667358221220788c262a26c088995ac0d495446a2f9dd3b74fd02fc8649826aaf263f54c40ca64736f6c63430008150033",
  "immutableReferences": {},
  "source": "// SPDX-License-Identifier: MIT\r\npragma solidity ^0.8.21;\r\n\r\ncontract ProductRegistry {\r\n    struct Product {\r\n        string manufacturerID;\r\n        string productName;\r\n        string productSN;\r\n        string productBrand;\r\n        uint256 productPrice;\r\n        address manufacturer;\r\n    }\r\n\r\n    mapping(string => Product) public products;\r\n\r\n    function registerProduct(\r\n        string memory _manufacturerID,\r\n        string memory _productName,\r\n        string memory _productSN,\r\n        string memory _productBrand,\r\n        uint256 _productPrice\r\n    ) public {\r\n        // Ensure productSN is unique\r\n        require(bytes(products[_productSN].productSN).length == 0, \"Product with this Serial Number already exists\");\r\n\r\n        products[_productSN] = Product(\r\n            _manufacturerID,\r\n            _productName,\r\n            _productSN,\r\n            _productBrand,\r\n            _productPrice,\r\n            msg.sender\r\n        );\r\n    }\r\n\r\n    function getProduct(string memory _productSN)\r\n        public\r\n        view\r\n        returns (\r\n            string memory,\r\n            string memory,\r\n            string memory,\r\n            string memory,\r\n            uint256,\r\n            address\r\n        )\r\n    {\r\n        Product memory p = products[_productSN];\r\n        return (\r\n            p.manufacturerID,\r\n            p.productName,\r\n            p.productSN,\r\n            p.productBrand,\r\n            p.productPrice,\r\n            p.manufacturer\r\n        );\r\n    }\r\n}\r\n",
  "sourcePath": "C:\\Users\\tarun\\projects\\supplychain-blockchain\\contracts\\ProductRegistry.sol",
  "compiler": {
    "name": "solc",
    "version": "0.8.21+commit.d9974bed.Emscripten.clang"
  },
  "schemaVersion": "3.4.16",
  "updatedAt": "2025-04-08T11:52:18.256Z",
  "networkType": "ethereum",
  "devdoc": {
    "kind": "dev",
    "methods": {},
    "version": 1
  },
  "userdoc": {
    "kind": "user",
    "methods": {},
    "version": 1
  }
}