{
  "contractName": "ProductRegistry",
  "abi": [
    {
      "anonymous": false,
      "inputs": [
        {
          "indexed": false,
          "internalType": "string",
          "name": "manufacturerID",
          "type": "string"
        },
        {
          "indexed": false,
          "internalType": "string",
          "name": "productName",
          "type": "string"
        },
        {
          "indexed": false,
          "internalType": "string",
          "name": "productSN",
          "type": "string"
        },
        {
          "indexed": false,
          "internalType": "string",
          "name": "productBrand",
          "type": "string"
        },
        {
          "indexed": false,
          "internalType": "uint256",
          "name": "productPrice",
          "type": "uint256"
        },
        {
          "indexed": true,
          "internalType": "address",
          "name": "manufacturer",
          "type": "address"
        }
      ],
      "name": "ProductRegistered",
      "type": "event"
    },
    {
      "inputs": [
        {
          "internalType": "uint256",
          "name": "",
          "type": "uint256"
        }
      ],
      "name": "productList",
      "outputs": [
        {
          "internalType": "string",
          "name": "",
          "type": "string"
        }
      ],
      "stateMutability": "view",
      "type": "function",
      "constant": true
    },
    {
      "inputs": [
        {
          "internalType": "string",
          "name": "",
          "type": "string"
        }
      ],
      "name": "products",
      "outputs": [
        {
          "internalType": "string",
          "name": "manufacturerID",
          "type": "string"
        },
        {
          "internalType": "string",
          "name": "productName",
          "type": "string"
        },
        {
          "internalType": "string",
          "name": "productSN",
          "type": "string"
        },
        {
          "internalType": "string",
          "name": "productBrand",
          "type": "string"
        },
        {
          "internalType": "uint256",
          "name": "productPrice",
          "type": "uint256"
        },
        {
          "internalType": "address",
          "name": "manufacturer",
          "type": "address"
        }
      ],
      "stateMutability": "view",
      "type": "function",
      "constant": true
    },
    {
      "inputs": [
        {
          "internalType": "string",
          "name": "_manufacturerID",
          "type": "string"
        },
        {
          "internalType": "string",
          "name": "_productName",
          "type": "string"
        },
        {
          "internalType": "string",
          "name": "_productSN",
          "type": "string"
        },
        {
          "internalType": "string",
          "name": "_productBrand",
          "type": "string"
        },
        {
          "internalType": "uint256",
          "name": "_productPrice",
          "type": "uint256"
        }
      ],
      "name": "registerProduct",
      "outputs": [],
      "stateMutability": "nonpayable",
      "type": "function"
    },
    {
      "inputs": [
        {
          "internalType": "string",
          "name": "_productSN",
          "type": "string"
        }
      ],
      "name": "getProduct",
      "outputs": [
        {
          "internalType": "string",
          "name": "",
          "type": "string"
        },
        {
          "internalType": "string",
          "name": "",
          "type": "string"
        },
        {
          "internalType": "string",
          "name": "",
          "type": "string"
        },
        {
          "internalType": "string",
          "name": "",
          "type": "string"
        },
        {
          "internalType": "uint256",
          "name": "",
          "type": "uint256"
        },
        {
          "internalType": "address",
          "name": "",
          "type": "address"
        }
      ],
      "stateMutability": "view",
      "type": "function",
      "constant": true
    },
    {
      "inputs": [
        {
          "internalType": "string",
          "name": "productSN",
          "type": "string"
        }
      ],
      "name": "productExists",
      "outputs": [
        {
          "internalType": "bool",
          "name": "",
          "type": "bool"
        }
      ],
      "stateMutability": "view",
      "type": "function",
      "constant": true
    },
    {
      "inputs": [
        {
          "internalType": "string",
          "name": "_manufacturerID",
          "type": "string"
        }
      ],
      "name": "manufacturerExists",
      "outputs": [
        {
          "internalType": "bool",
          "name": "",
          "type": "bool"
        }
      ],
      "stateMutability": "view",
      "type": "function",
      "constant": true
    },
    {
      "inputs": [],
      "name": "getProductListLength",
      "outputs": [
        {
          "internalType": "uint256",
          "name": "",
          "type": "uint256"
        }
      ],
      "stateMutability": "view",
      "type": "function",
      "constant": true
    }
  ],
  "bytecode": "0x608060405234801561000f575f80fd5b5061157d8061001d5f395ff3fe608060405234801561000f575f80fd5b506004361061007b575f3560e01c806368111cce1161005957806368111cce146101145780638addc05114610149578063a18c1fab14610179578063d0b19870146101955761007b565b80630186a4231461007f578063528c87d2146100b457806354328fe1146100e4575b5f80fd5b61009960048036038101906100949190610c0f565b6101b3565b6040516100ab96959493929190610d27565b60405180910390f35b6100ce60048036038101906100c99190610dcc565b610439565b6040516100db9190610df7565b60405180910390f35b6100fe60048036038101906100f99190610c0f565b6104df565b60405161010b9190610e31565b60405180910390f35b61012e60048036038101906101299190610c0f565b610575565b60405161014096959493929190610d27565b60405180910390f35b610163600480360381019061015e9190610c0f565b610879565b6040516101709190610e31565b60405180910390f35b610193600480360381019061018e9190610e4a565b6108b0565b005b61019d610ab6565b6040516101aa9190610f31565b60405180910390f35b5f818051602081018201805184825260208301602085012081835280955050505050505f91509050805f0180546101e990610f77565b80601f016020809104026020016040519081016040528092919081815260200182805461021590610f77565b80156102605780601f1061023757610100808354040283529160200191610260565b820191905f5260205f20905b81548152906001019060200180831161024357829003601f168201915b50505050509080600101805461027590610f77565b80601f01602080910402602001604051908101604052809291908181526020018280546102a190610f77565b80156102ec5780601f106102c3576101008083540402835291602001916102ec565b820191905f5260205f20905b8154815290600101906020018083116102cf57829003601f168201915b50505050509080600201805461030190610f77565b80601f016020809104026020016040519081016040528092919081815260200182805461032d90610f77565b80156103785780601f1061034f57610100808354040283529160200191610378565b820191905f5260205f20905b81548152906001019060200180831161035b57829003601f168201915b50505050509080600301805461038d90610f77565b80601f01602080910402602001604051908101604052809291908181526020018280546103b990610f77565b80156104045780601f106103db57610100808354040283529160200191610404565b820191905f5260205f20905b8154815290600101906020018083116103e757829003601f168201915b505050505090806004015490806005015f9054906101000a900473ffffffffffffffffffffffffffffffffffffffff16905086565b60018181548110610448575f80fd5b905f5260205f20015f91509050805461046090610f77565b80601f016020809104026020016040519081016040528092919081815260200182805461048c90610f77565b80156104d75780601f106104ae576101008083540402835291602001916104d7565b820191905f5260205f20905b8154815290600101906020018083116104ba57829003601f168201915b505050505081565b5f805f90505b60018054905081101561056b5782805190602001205f6001838154811061050f5761050e610fa7565b5b905f5260205f20016040516105249190611070565b90815260200160405180910390205f016040516105419190611122565b604051809103902003610558576001915050610570565b808061056390611165565b9150506104e5565b505f90505b919050565b6060806060805f805f808860405161058d91906111dc565b90815260200160405180910390206040518060c00160405290815f820180546105b590610f77565b80601f01602080910402602001604051908101604052809291908181526020018280546105e190610f77565b801561062c5780601f106106035761010080835404028352916020019161062c565b820191905f5260205f20905b81548152906001019060200180831161060f57829003601f168201915b5050505050815260200160018201805461064590610f77565b80601f016020809104026020016040519081016040528092919081815260200182805461067190610f77565b80156106bc5780601f10610693576101008083540402835291602001916106bc565b820191905f5260205f20905b81548152906001019060200180831161069f57829003601f168201915b505050505081526020016002820180546106d590610f77565b80601f016020809104026020016040519081016040528092919081815260200182805461070190610f77565b801561074c5780601f106107235761010080835404028352916020019161074c565b820191905f5260205f20905b81548152906001019060200180831161072f57829003601f168201915b5050505050815260200160038201805461076590610f77565b80601f016020809104026020016040519081016040528092919081815260200182805461079190610f77565b80156107dc5780601f106107b3576101008083540402835291602001916107dc565b820191905f5260205f20905b8154815290600101906020018083116107bf57829003601f168201915b5050505050815260200160048201548152602001600582015f9054906101000a900473ffffffffffffffffffffffffffffffffffffffff1673ffffffffffffffffffffffffffffffffffffffff1673ffffffffffffffffffffffffffffffffffffffff16815250509050805f015181602001518260400151836060015184608001518560a001519650965096509650965096505091939550919395565b5f805f8360405161088a91906111dc565b908152602001604051809103902060020180546108a690610f77565b9050119050919050565b5f80846040516108c091906111dc565b908152602001604051809103902060020180546108dc90610f77565b90501461091e576040517f08c379a000000000000000000000000000000000000000000000000000000000815260040161091590611262565b60405180910390fd5b6040518060c001604052808681526020018581526020018481526020018381526020018281526020013373ffffffffffffffffffffffffffffffffffffffff168152505f8460405161097091906111dc565b90815260200160405180910390205f820151815f019081610991919061140b565b5060208201518160010190816109a7919061140b565b5060408201518160020190816109bd919061140b565b5060608201518160030190816109d3919061140b565b506080820151816004015560a0820151816005015f6101000a81548173ffffffffffffffffffffffffffffffffffffffff021916908373ffffffffffffffffffffffffffffffffffffffff160217905550905050600183908060018154018082558091505060019003905f5260205f20015f909190919091509081610a58919061140b565b503373ffffffffffffffffffffffffffffffffffffffff167f057e707dbc75e8b86ce68518e91fd6b61dfc8116d4909e4128b5729e37adf7178686868686604051610aa79594939291906114da565b60405180910390a25050505050565b5f600180549050905090565b5f604051905090565b5f80fd5b5f80fd5b5f80fd5b5f80fd5b5f601f19601f8301169050919050565b7f4e487b71000000000000000000000000000000000000000000000000000000005f52604160045260245ffd5b610b2182610adb565b810181811067ffffffffffffffff82111715610b4057610b3f610aeb565b5b80604052505050565b5f610b52610ac2565b9050610b5e8282610b18565b919050565b5f67ffffffffffffffff821115610b7d57610b7c610aeb565b5b610b8682610adb565b9050602081019050919050565b828183375f83830152505050565b5f610bb3610bae84610b63565b610b49565b905082815260208101848484011115610bcf57610bce610ad7565b5b610bda848285610b93565b509392505050565b5f82601f830112610bf657610bf5610ad3565b5b8135610c06848260208601610ba1565b91505092915050565b5f60208284031215610c2457610c23610acb565b5b5f82013567ffffffffffffffff811115610c4157610c40610acf565b5b610c4d84828501610be2565b91505092915050565b5f81519050919050565b5f82825260208201905092915050565b5f5b83811015610c8d578082015181840152602081019050610c72565b5f8484015250505050565b5f610ca282610c56565b610cac8185610c60565b9350610cbc818560208601610c70565b610cc581610adb565b840191505092915050565b5f819050919050565b610ce281610cd0565b82525050565b5f73ffffffffffffffffffffffffffffffffffffffff82169050919050565b5f610d1182610ce8565b9050919050565b610d2181610d07565b82525050565b5f60c0820190508181035f830152610d3f8189610c98565b90508181036020830152610d538188610c98565b90508181036040830152610d678187610c98565b90508181036060830152610d7b8186610c98565b9050610d8a6080830185610cd9565b610d9760a0830184610d18565b979650505050505050565b610dab81610cd0565b8114610db5575f80fd5b50565b5f81359050610dc681610da2565b92915050565b5f60208284031215610de157610de0610acb565b5b5f610dee84828501610db8565b91505092915050565b5f6020820190508181035f830152610e0f8184610c98565b905092915050565b5f8115159050919050565b610e2b81610e17565b82525050565b5f602082019050610e445f830184610e22565b92915050565b5f805f805f60a08688031215610e6357610e62610acb565b5b5f86013567ffffffffffffffff811115610e8057610e7f610acf565b5b610e8c88828901610be2565b955050602086013567ffffffffffffffff811115610ead57610eac610acf565b5b610eb988828901610be2565b945050604086013567ffffffffffffffff811115610eda57610ed9610acf565b5b610ee688828901610be2565b935050606086013567ffffffffffffffff811115610f0757610f06610acf565b5b610f1388828901610be2565b9250506080610f2488828901610db8565b9150509295509295909350565b5f602082019050610f445f830184610cd9565b92915050565b7f4e487b71000000000000000000000000000000000000000000000000000000005f52602260045260245ffd5b5f6002820490506001821680610f8e57607f821691505b602082108103610fa157610fa0610f4a565b5b50919050565b7f4e487b71000000000000000000000000000000000000000000000000000000005f52603260045260245ffd5b5f81905092915050565b5f819050815f5260205f209050919050565b5f8154610ffc81610f77565b6110068186610fd4565b9450600182165f8114611020576001811461103557611067565b60ff1983168652811515820286019350611067565b61103e85610fde565b5f5b8381101561105f57815481890152600182019150602081019050611040565b838801955050505b50505092915050565b5f61107b8284610ff0565b915081905092915050565b5f81905092915050565b5f819050815f5260205f209050919050565b5f81546110ae81610f77565b6110b88186611086565b9450600182165f81146110d257600181146110e757611119565b60ff1983168652811515820286019350611119565b6110f085611090565b5f5b83811015611111578154818901526001820191506020810190506110f2565b838801955050505b50505092915050565b5f61112d82846110a2565b915081905092915050565b7f4e487b71000000000000000000000000000000000000000000000000000000005f52601160045260245ffd5b5f61116f82610cd0565b91507fffffffffffffffffffffffffffffffffffffffffffffffffffffffffffffffff82036111a1576111a0611138565b5b600182019050919050565b5f6111b682610c56565b6111c08185610fd4565b93506111d0818560208601610c70565b80840191505092915050565b5f6111e782846111ac565b915081905092915050565b7f50726f64756374207769746820746869732053657269616c204e756d626572205f8201527f616c726561647920657869737473000000000000000000000000000000000000602082015250565b5f61124c602e83610c60565b9150611257826111f2565b604082019050919050565b5f6020820190508181035f83015261127981611240565b9050919050565b5f6020601f8301049050919050565b5f82821b905092915050565b5f600883026112ca7fffffffffffffffffffffffffffffffffffffffffffffffffffffffffffffffff8261128f565b6112d4868361128f565b95508019841693508086168417925050509392505050565b5f819050919050565b5f61130f61130a61130584610cd0565b6112ec565b610cd0565b9050919050565b5f819050919050565b611328836112f5565b61133c61133482611316565b84845461129b565b825550505050565b5f90565b611350611344565b61135b81848461131f565b505050565b5b8181101561137e576113735f82611348565b600181019050611361565b5050565b601f8211156113c35761139481610fde565b61139d84611280565b810160208510156113ac578190505b6113c06113b885611280565b830182611360565b50505b505050565b5f82821c905092915050565b5f6113e35f19846008026113c8565b1980831691505092915050565b5f6113fb83836113d4565b9150826002028217905092915050565b61141482610c56565b67ffffffffffffffff81111561142d5761142c610aeb565b5b6114378254610f77565b611442828285611382565b5f60209050601f831160018114611473575f8415611461578287015190505b61146b85826113f0565b8655506114d2565b601f19841661148186610fde565b5f5b828110156114a857848901518255600182019150602085019450602081019050611483565b868310156114c557848901516114c1601f8916826113d4565b8355505b6001600288020188555050505b505050505050565b5f60a0820190508181035f8301526114f28188610c98565b905081810360208301526115068187610c98565b9050818103604083015261151a8186610c98565b9050818103606083015261152e8185610c98565b905061153d6080830184610cd9565b969550505050505056fea264697066735822122063a7b11a7999e5db74b83fe60a9a95cb875d8f3b245b19e11f1cbfb377c5b85a64736f6c63430008150033",
  "immutableReferences": {},
  "source": "// SPDX-License-Identifier: MIT\r\npragma solidity ^0.8.21;\r\n\r\ncontract ProductRegistry {\r\n    struct Product {\r\n        string manufacturerID;\r\n        string productName;\r\n        string productSN;\r\n        string productBrand;\r\n        uint256 productPrice;\r\n        address manufacturer;\r\n    }\r\n\r\n    mapping(string => Product) public products;\r\n    string[] public productList;\r\n\r\n    event ProductRegistered(\r\n        string manufacturerID,\r\n        string productName,\r\n        string productSN,\r\n        string productBrand,\r\n        uint256 productPrice,\r\n        address indexed manufacturer\r\n    );\r\n\r\n    function registerProduct(\r\n        string memory _manufacturerID,\r\n        string memory _productName,\r\n        string memory _productSN,\r\n        string memory _productBrand,\r\n        uint256 _productPrice\r\n    ) public {\r\n        require(bytes(products[_productSN].productSN).length == 0, \"Product with this Serial Number already exists\");\r\n\r\n        products[_productSN] = Product(\r\n            _manufacturerID,\r\n            _productName,\r\n            _productSN,\r\n            _productBrand,\r\n            _productPrice,\r\n            msg.sender\r\n        );\r\n\r\n        productList.push(_productSN);\r\n\r\n        emit ProductRegistered(\r\n            _manufacturerID,\r\n            _productName,\r\n            _productSN,\r\n            _productBrand,\r\n            _productPrice,\r\n            msg.sender\r\n        );\r\n    }\r\n\r\n    function getProduct(string memory _productSN)\r\n        public\r\n        view\r\n        returns (\r\n            string memory,\r\n            string memory,\r\n            string memory,\r\n            string memory,\r\n            uint256,\r\n            address\r\n        )\r\n    {\r\n        Product memory p = products[_productSN];\r\n        return (\r\n            p.manufacturerID,\r\n            p.productName,\r\n            p.productSN,\r\n            p.productBrand,\r\n            p.productPrice,\r\n            p.manufacturer\r\n        );\r\n    }\r\n\r\n    function productExists(string memory productSN) public view returns (bool) {\r\n        return bytes(products[productSN].productSN).length > 0;\r\n    }\r\n\r\n    function manufacturerExists(string memory _manufacturerID) public view returns (bool) {\r\n        for (uint i = 0; i < productList.length; i++) {\r\n            if (\r\n                keccak256(bytes(products[productList[i]].manufacturerID)) ==\r\n                keccak256(bytes(_manufacturerID))\r\n            ) {\r\n                return true;\r\n            }\r\n        }\r\n        return false;\r\n    }\r\n\r\n    function getProductListLength() public view returns (uint) {\r\n        return productList.length;\r\n    }\r\n}\r\n",
  "sourcePath": "T:\\Fake-Product-Identification-By-QR-code-using-blockchain\\supplychain-blockchain\\contracts\\ProductRegistry.sol",
  "compiler": {
    "name": "solc",
    "version": "0.8.21+commit.d9974bed.Emscripten.clang"
  },
  "schemaVersion": "3.4.16",
  "updatedAt": "2025-04-25T13:10:56.897Z",
  "networkType": "ethereum",
  "devdoc": {
    "kind": "dev",
    "methods": {},
    "version": 1
  },
  "userdoc": {
    "kind": "user",
    "methods": {},
    "version": 1
  }
}