{
  "contractName": "ProductSaleRegistry",
  "abi": [
    {
      "anonymous": false,
      "inputs": [
        {
          "indexed": false,
          "internalType": "string",
          "name": "productSN",
          "type": "string"
        },
        {
          "indexed": false,
          "internalType": "string",
          "name": "consumerCode",
          "type": "string"
        },
        {
          "indexed": true,
          "internalType": "address",
          "name": "seller",
          "type": "address"
        },
        {
          "indexed": false,
          "internalType": "uint256",
          "name": "timestamp",
          "type": "uint256"
        }
      ],
      "name": "ProductSold",
      "type": "event"
    },
    {
      "inputs": [
        {
          "internalType": "string",
          "name": "",
          "type": "string"
        }
      ],
      "name": "sales",
      "outputs": [
        {
          "internalType": "string",
          "name": "productSN",
          "type": "string"
        },
        {
          "internalType": "string",
          "name": "consumerCode",
          "type": "string"
        },
        {
          "internalType": "address",
          "name": "seller",
          "type": "address"
        },
        {
          "internalType": "uint256",
          "name": "timestamp",
          "type": "uint256"
        }
      ],
      "stateMutability": "view",
      "type": "function",
      "constant": true
    },
    {
      "inputs": [
        {
          "internalType": "string",
          "name": "_productSN",
          "type": "string"
        },
        {
          "internalType": "string",
          "name": "_consumerCode",
          "type": "string"
        }
      ],
      "name": "recordSale",
      "outputs": [],
      "stateMutability": "nonpayable",
      "type": "function"
    },
    {
      "inputs": [
        {
          "internalType": "string",
          "name": "_productSN",
          "type": "string"
        }
      ],
      "name": "getSale",
      "outputs": [
        {
          "internalType": "string",
          "name": "",
          "type": "string"
        },
        {
          "internalType": "string",
          "name": "",
          "type": "string"
        },
        {
          "internalType": "address",
          "name": "",
          "type": "address"
        },
        {
          "internalType": "uint256",
          "name": "",
          "type": "uint256"
        }
      ],
      "stateMutability": "view",
      "type": "function",
      "constant": true
    },
    {
      "inputs": [
        {
          "internalType": "string",
          "name": "_productSN",
          "type": "string"
        }
      ],
      "name": "saleExists",
      "outputs": [
        {
          "internalType": "bool",
          "name": "",
          "type": "bool"
        }
      ],
      "stateMutability": "view",
      "type": "function",
      "constant": true
    }
  ],
  "bytecode": "0x608060405234801561000f575f80fd5b50610f048061001d5f395ff3fe608060405234801561000f575f80fd5b506004361061004a575f3560e01c80630a8bd6d01461004e5780632de04e031461006a5780639d15b2d31461009d578063fbb37cf2146100cd575b5f80fd5b610068600480360381019061006391906107dc565b610100565b005b610084600480360381019061007f9190610852565b61031a565b604051610094949392919061096a565b60405180910390f35b6100b760048036038101906100b29190610852565b6104eb565b6040516100c491906109d5565b60405180910390f35b6100e760048036038101906100e29190610852565b610521565b6040516100f7949392919061096a565b60405180910390f35b5f825111610143576040517f08c379a000000000000000000000000000000000000000000000000000000000815260040161013a90610a5e565b60405180910390fd5b5f815111610186576040517f08c379a000000000000000000000000000000000000000000000000000000000815260040161017d90610ac6565b60405180910390fd5b5f80836040516101969190610b1e565b90815260200160405180910390205f0180546101b190610b61565b9050146101f3576040517f08c379a00000000000000000000000000000000000000000000000000000000081526004016101ea90610c01565b60405180910390fd5b60405180608001604052808381526020018281526020013373ffffffffffffffffffffffffffffffffffffffff168152602001428152505f836040516102399190610b1e565b90815260200160405180910390205f820151815f01908161025a9190610dbc565b5060208201518160010190816102709190610dbc565b506040820151816002015f6101000a81548173ffffffffffffffffffffffffffffffffffffffff021916908373ffffffffffffffffffffffffffffffffffffffff160217905550606082015181600301559050503373ffffffffffffffffffffffffffffffffffffffff167f627759da825d4d1b77d6a0ca6979a480ec274b4beff7e91303bd2966cf3d18db83834260405161030e93929190610e8b565b60405180910390a25050565b6060805f805f808660405161032f9190610b1e565b90815260200160405180910390206040518060800160405290815f8201805461035790610b61565b80601f016020809104026020016040519081016040528092919081815260200182805461038390610b61565b80156103ce5780601f106103a5576101008083540402835291602001916103ce565b820191905f5260205f20905b8154815290600101906020018083116103b157829003601f168201915b505050505081526020016001820180546103e790610b61565b80601f016020809104026020016040519081016040528092919081815260200182805461041390610b61565b801561045e5780601f106104355761010080835404028352916020019161045e565b820191905f5260205f20905b81548152906001019060200180831161044157829003601f168201915b50505050508152602001600282015f9054906101000a900473ffffffffffffffffffffffffffffffffffffffff1673ffffffffffffffffffffffffffffffffffffffff1673ffffffffffffffffffffffffffffffffffffffff1681526020016003820154815250509050805f01518160200151826040015183606001519450945094509450509193509193565b5f805f836040516104fc9190610b1e565b90815260200160405180910390205f01805461051790610b61565b9050119050919050565b5f818051602081018201805184825260208301602085012081835280955050505050505f91509050805f01805461055790610b61565b80601f016020809104026020016040519081016040528092919081815260200182805461058390610b61565b80156105ce5780601f106105a5576101008083540402835291602001916105ce565b820191905f5260205f20905b8154815290600101906020018083116105b157829003601f168201915b5050505050908060010180546105e390610b61565b80601f016020809104026020016040519081016040528092919081815260200182805461060f90610b61565b801561065a5780601f106106315761010080835404028352916020019161065a565b820191905f5260205f20905b81548152906001019060200180831161063d57829003601f168201915b505050505090806002015f9054906101000a900473ffffffffffffffffffffffffffffffffffffffff16908060030154905084565b5f604051905090565b5f80fd5b5f80fd5b5f80fd5b5f80fd5b5f601f19601f8301169050919050565b7f4e487b71000000000000000000000000000000000000000000000000000000005f52604160045260245ffd5b6106ee826106a8565b810181811067ffffffffffffffff8211171561070d5761070c6106b8565b5b80604052505050565b5f61071f61068f565b905061072b82826106e5565b919050565b5f67ffffffffffffffff82111561074a576107496106b8565b5b610753826106a8565b9050602081019050919050565b828183375f83830152505050565b5f61078061077b84610730565b610716565b90508281526020810184848401111561079c5761079b6106a4565b5b6107a7848285610760565b509392505050565b5f82601f8301126107c3576107c26106a0565b5b81356107d384826020860161076e565b91505092915050565b5f80604083850312156107f2576107f1610698565b5b5f83013567ffffffffffffffff81111561080f5761080e61069c565b5b61081b858286016107af565b925050602083013567ffffffffffffffff81111561083c5761083b61069c565b5b610848858286016107af565b9150509250929050565b5f6020828403121561086757610866610698565b5b5f82013567ffffffffffffffff8111156108845761088361069c565b5b610890848285016107af565b91505092915050565b5f81519050919050565b5f82825260208201905092915050565b5f5b838110156108d05780820151818401526020810190506108b5565b5f8484015250505050565b5f6108e582610899565b6108ef81856108a3565b93506108ff8185602086016108b3565b610908816106a8565b840191505092915050565b5f73ffffffffffffffffffffffffffffffffffffffff82169050919050565b5f61093c82610913565b9050919050565b61094c81610932565b82525050565b5f819050919050565b61096481610952565b82525050565b5f6080820190508181035f83015261098281876108db565b9050818103602083015261099681866108db565b90506109a56040830185610943565b6109b2606083018461095b565b95945050505050565b5f8115159050919050565b6109cf816109bb565b82525050565b5f6020820190506109e85f8301846109c6565b92915050565b7f50726f647563742053657269616c204e756d62657220697320726571756972655f8201527f6400000000000000000000000000000000000000000000000000000000000000602082015250565b5f610a486021836108a3565b9150610a53826109ee565b604082019050919050565b5f6020820190508181035f830152610a7581610a3c565b9050919050565b7f436f6e73756d657220436f6465206973207265717569726564000000000000005f82015250565b5f610ab06019836108a3565b9150610abb82610a7c565b602082019050919050565b5f6020820190508181035f830152610add81610aa4565b9050919050565b5f81905092915050565b5f610af882610899565b610b028185610ae4565b9350610b128185602086016108b3565b80840191505092915050565b5f610b298284610aee565b915081905092915050565b7f4e487b71000000000000000000000000000000000000000000000000000000005f52602260045260245ffd5b5f6002820490506001821680610b7857607f821691505b602082108103610b8b57610b8a610b34565b5b50919050565b7f53616c6520666f7220746869732053657269616c204e756d62657220616c72655f8201527f6164792065786973747300000000000000000000000000000000000000000000602082015250565b5f610beb602a836108a3565b9150610bf682610b91565b604082019050919050565b5f6020820190508181035f830152610c1881610bdf565b9050919050565b5f819050815f5260205f209050919050565b5f6020601f8301049050919050565b5f82821b905092915050565b5f60088302610c7b7fffffffffffffffffffffffffffffffffffffffffffffffffffffffffffffffff82610c40565b610c858683610c40565b95508019841693508086168417925050509392505050565b5f819050919050565b5f610cc0610cbb610cb684610952565b610c9d565b610952565b9050919050565b5f819050919050565b610cd983610ca6565b610ced610ce582610cc7565b848454610c4c565b825550505050565b5f90565b610d01610cf5565b610d0c818484610cd0565b505050565b5b81811015610d2f57610d245f82610cf9565b600181019050610d12565b5050565b601f821115610d7457610d4581610c1f565b610d4e84610c31565b81016020851015610d5d578190505b610d71610d6985610c31565b830182610d11565b50505b505050565b5f82821c905092915050565b5f610d945f1984600802610d79565b1980831691505092915050565b5f610dac8383610d85565b9150826002028217905092915050565b610dc582610899565b67ffffffffffffffff811115610dde57610ddd6106b8565b5b610de88254610b61565b610df3828285610d33565b5f60209050601f831160018114610e24575f8415610e12578287015190505b610e1c8582610da1565b865550610e83565b601f198416610e3286610c1f565b5f5b82811015610e5957848901518255600182019150602085019450602081019050610e34565b86831015610e765784890151610e72601f891682610d85565b8355505b6001600288020188555050505b505050505050565b5f6060820190508181035f830152610ea381866108db565b90508181036020830152610eb781856108db565b9050610ec6604083018461095b565b94935050505056fea26469706673582212202b6b3c5c2665a9bc67d6d7fd54d8188d000b59cdb1dfe502b95ee02de4c1788d64736f6c63430008150033",
  "immutableReferences": {},
  "source": "// SPDX-License-Identifier: MIT\r\npragma solidity ^0.8.21;\r\n\r\ncontract ProductSaleRegistry {\r\n    struct Sale {\r\n        string productSN;\r\n        string consumerCode;\r\n        address seller;\r\n        uint256 timestamp;\r\n    }\r\n\r\n    mapping(string => Sale) public sales;\r\n\r\n    // Emitted when a sale is successfully recorded\r\n    event ProductSold(string productSN, string consumerCode, address indexed seller, uint256 timestamp);\r\n\r\n    function recordSale(string memory _productSN, string memory _consumerCode) public {\r\n        require(bytes(_productSN).length > 0, \"Product Serial Number is required\");\r\n        require(bytes(_consumerCode).length > 0, \"Consumer Code is required\");\r\n        require(bytes(sales[_productSN].productSN).length == 0, \"Sale for this Serial Number already exists\");\r\n\r\n        sales[_productSN] = Sale({\r\n            productSN: _productSN,\r\n            consumerCode: _consumerCode,\r\n            seller: msg.sender,\r\n            timestamp: block.timestamp\r\n        });\r\n\r\n        emit ProductSold(_productSN, _consumerCode, msg.sender, block.timestamp);\r\n    }\r\n\r\n    function getSale(string memory _productSN) public view returns (string memory, string memory, address, uint256) {\r\n        Sale memory s = sales[_productSN];\r\n        return (s.productSN, s.consumerCode, s.seller, s.timestamp);\r\n    }\r\n\r\n    function saleExists(string memory _productSN) public view returns (bool) {\r\n        return bytes(sales[_productSN].productSN).length > 0;\r\n    }\r\n}\r\n",
  "sourcePath": "C:\\Users\\tarun\\projects\\supplychain-blockchain\\contracts\\ProductSaleRegistry.sol",
  "compiler": {
    "name": "solc",
    "version": "0.8.21+commit.d9974bed.Emscripten.clang"
  },
  "schemaVersion": "3.4.16",
  "updatedAt": "2025-04-12T19:39:24.067Z",
  "networkType": "ethereum",
  "devdoc": {
    "kind": "dev",
    "methods": {},
    "version": 1
  },
  "userdoc": {
    "kind": "user",
    "methods": {},
    "version": 1
  }
}