{
  "contractName": "ProductRegistry",
  "abi": [
    {
      "inputs": [
        {
          "internalType": "string",
          "name": "",
          "type": "string"
        }
      ],
      "name": "products",
      "outputs": [
        {
          "internalType": "string",
          "name": "manufacturerID",
          "type": "string"
        },
        {
          "internalType": "string",
          "name": "productName",
          "type": "string"
        },
        {
          "internalType": "string",
          "name": "productSN",
          "type": "string"
        },
        {
          "internalType": "string",
          "name": "productBrand",
          "type": "string"
        },
        {
          "internalType": "uint256",
          "name": "productPrice",
          "type": "uint256"
        },
        {
          "internalType": "address",
          "name": "manufacturer",
          "type": "address"
        }
      ],
      "stateMutability": "view",
      "type": "function",
      "constant": true
    },
    {
      "inputs": [
        {
          "internalType": "string",
          "name": "_manufacturerID",
          "type": "string"
        },
        {
          "internalType": "string",
          "name": "_productName",
          "type": "string"
        },
        {
          "internalType": "string",
          "name": "_productSN",
          "type": "string"
        },
        {
          "internalType": "string",
          "name": "_productBrand",
          "type": "string"
        },
        {
          "internalType": "uint256",
          "name": "_productPrice",
          "type": "uint256"
        }
      ],
      "name": "registerProduct",
      "outputs": [],
      "stateMutability": "nonpayable",
      "type": "function"
    },
    {
      "inputs": [
        {
          "internalType": "string",
          "name": "_productSN",
          "type": "string"
        }
      ],
      "name": "getProduct",
      "outputs": [
        {
          "internalType": "string",
          "name": "",
          "type": "string"
        },
        {
          "internalType": "string",
          "name": "",
          "type": "string"
        },
        {
          "internalType": "string",
          "name": "",
          "type": "string"
        },
        {
          "internalType": "string",
          "name": "",
          "type": "string"
        },
        {
          "internalType": "uint256",
          "name": "",
          "type": "uint256"
        },
        {
          "internalType": "address",
          "name": "",
          "type": "address"
        }
      ],
      "stateMutability": "view",
      "type": "function",
      "constant": true
    },
    {
      "inputs": [
        {
          "internalType": "string",
          "name": "productSN",
          "type": "string"
        }
      ],
      "name": "productExists",
      "outputs": [
        {
          "internalType": "bool",
          "name": "",
          "type": "bool"
        }
      ],
      "stateMutability": "view",
      "type": "function",
      "constant": true
    }
  ],
  "bytecode": "0x608060405234801561000f575f80fd5b506110448061001d5f395ff3fe608060405234801561000f575f80fd5b506004361061004a575f3560e01c80630186a4231461004e57806368111cce146100835780638addc051146100b8578063a18c1fab146100e8575b5f80fd5b61006860048036038101906100639190610990565b610104565b60405161007a96959493929190610aa8565b60405180910390f35b61009d60048036038101906100989190610990565b61038a565b6040516100af96959493929190610aa8565b60405180910390f35b6100d260048036038101906100cd9190610990565b61068e565b6040516100df9190610b3d565b60405180910390f35b61010260048036038101906100fd9190610b80565b6106c5565b005b5f818051602081018201805184825260208301602085012081835280955050505050505f91509050805f01805461013a90610c94565b80601f016020809104026020016040519081016040528092919081815260200182805461016690610c94565b80156101b15780601f10610188576101008083540402835291602001916101b1565b820191905f5260205f20905b81548152906001019060200180831161019457829003601f168201915b5050505050908060010180546101c690610c94565b80601f01602080910402602001604051908101604052809291908181526020018280546101f290610c94565b801561023d5780601f106102145761010080835404028352916020019161023d565b820191905f5260205f20905b81548152906001019060200180831161022057829003601f168201915b50505050509080600201805461025290610c94565b80601f016020809104026020016040519081016040528092919081815260200182805461027e90610c94565b80156102c95780601f106102a0576101008083540402835291602001916102c9565b820191905f5260205f20905b8154815290600101906020018083116102ac57829003601f168201915b5050505050908060030180546102de90610c94565b80601f016020809104026020016040519081016040528092919081815260200182805461030a90610c94565b80156103555780601f1061032c57610100808354040283529160200191610355565b820191905f5260205f20905b81548152906001019060200180831161033857829003601f168201915b505050505090806004015490806005015f9054906101000a900473ffffffffffffffffffffffffffffffffffffffff16905086565b6060806060805f805f80886040516103a29190610cfe565b90815260200160405180910390206040518060c00160405290815f820180546103ca90610c94565b80601f01602080910402602001604051908101604052809291908181526020018280546103f690610c94565b80156104415780601f1061041857610100808354040283529160200191610441565b820191905f5260205f20905b81548152906001019060200180831161042457829003601f168201915b5050505050815260200160018201805461045a90610c94565b80601f016020809104026020016040519081016040528092919081815260200182805461048690610c94565b80156104d15780601f106104a8576101008083540402835291602001916104d1565b820191905f5260205f20905b8154815290600101906020018083116104b457829003601f168201915b505050505081526020016002820180546104ea90610c94565b80601f016020809104026020016040519081016040528092919081815260200182805461051690610c94565b80156105615780601f1061053857610100808354040283529160200191610561565b820191905f5260205f20905b81548152906001019060200180831161054457829003601f168201915b5050505050815260200160038201805461057a90610c94565b80601f01602080910402602001604051908101604052809291908181526020018280546105a690610c94565b80156105f15780601f106105c8576101008083540402835291602001916105f1565b820191905f5260205f20905b8154815290600101906020018083116105d457829003601f168201915b5050505050815260200160048201548152602001600582015f9054906101000a900473ffffffffffffffffffffffffffffffffffffffff1673ffffffffffffffffffffffffffffffffffffffff1673ffffffffffffffffffffffffffffffffffffffff16815250509050805f015181602001518260400151836060015184608001518560a001519650965096509650965096505091939550919395565b5f805f8360405161069f9190610cfe565b908152602001604051809103902060020180546106bb90610c94565b9050119050919050565b5f80846040516106d59190610cfe565b908152602001604051809103902060020180546106f190610c94565b905014610733576040517f08c379a000000000000000000000000000000000000000000000000000000000815260040161072a90610d84565b60405180910390fd5b6040518060c001604052808681526020018581526020018481526020018381526020018281526020013373ffffffffffffffffffffffffffffffffffffffff168152505f846040516107859190610cfe565b90815260200160405180910390205f820151815f0190816107a69190610f3f565b5060208201518160010190816107bc9190610f3f565b5060408201518160020190816107d29190610f3f565b5060608201518160030190816107e89190610f3f565b506080820151816004015560a0820151816005015f6101000a81548173ffffffffffffffffffffffffffffffffffffffff021916908373ffffffffffffffffffffffffffffffffffffffff1602179055509050505050505050565b5f604051905090565b5f80fd5b5f80fd5b5f80fd5b5f80fd5b5f601f19601f8301169050919050565b7f4e487b71000000000000000000000000000000000000000000000000000000005f52604160045260245ffd5b6108a28261085c565b810181811067ffffffffffffffff821117156108c1576108c061086c565b5b80604052505050565b5f6108d3610843565b90506108df8282610899565b919050565b5f67ffffffffffffffff8211156108fe576108fd61086c565b5b6109078261085c565b9050602081019050919050565b828183375f83830152505050565b5f61093461092f846108e4565b6108ca565b9050828152602081018484840111156109505761094f610858565b5b61095b848285610914565b509392505050565b5f82601f83011261097757610976610854565b5b8135610987848260208601610922565b91505092915050565b5f602082840312156109a5576109a461084c565b5b5f82013567ffffffffffffffff8111156109c2576109c1610850565b5b6109ce84828501610963565b91505092915050565b5f81519050919050565b5f82825260208201905092915050565b5f5b83811015610a0e5780820151818401526020810190506109f3565b5f8484015250505050565b5f610a23826109d7565b610a2d81856109e1565b9350610a3d8185602086016109f1565b610a468161085c565b840191505092915050565b5f819050919050565b610a6381610a51565b82525050565b5f73ffffffffffffffffffffffffffffffffffffffff82169050919050565b5f610a9282610a69565b9050919050565b610aa281610a88565b82525050565b5f60c0820190508181035f830152610ac08189610a19565b90508181036020830152610ad48188610a19565b90508181036040830152610ae88187610a19565b90508181036060830152610afc8186610a19565b9050610b0b6080830185610a5a565b610b1860a0830184610a99565b979650505050505050565b5f8115159050919050565b610b3781610b23565b82525050565b5f602082019050610b505f830184610b2e565b92915050565b610b5f81610a51565b8114610b69575f80fd5b50565b5f81359050610b7a81610b56565b92915050565b5f805f805f60a08688031215610b9957610b9861084c565b5b5f86013567ffffffffffffffff811115610bb657610bb5610850565b5b610bc288828901610963565b955050602086013567ffffffffffffffff811115610be357610be2610850565b5b610bef88828901610963565b945050604086013567ffffffffffffffff811115610c1057610c0f610850565b5b610c1c88828901610963565b935050606086013567ffffffffffffffff811115610c3d57610c3c610850565b5b610c4988828901610963565b9250506080610c5a88828901610b6c565b9150509295509295909350565b7f4e487b71000000000000000000000000000000000000000000000000000000005f52602260045260245ffd5b5f6002820490506001821680610cab57607f821691505b602082108103610cbe57610cbd610c67565b5b50919050565b5f81905092915050565b5f610cd8826109d7565b610ce28185610cc4565b9350610cf28185602086016109f1565b80840191505092915050565b5f610d098284610cce565b915081905092915050565b7f50726f64756374207769746820746869732053657269616c204e756d626572205f8201527f616c726561647920657869737473000000000000000000000000000000000000602082015250565b5f610d6e602e836109e1565b9150610d7982610d14565b604082019050919050565b5f6020820190508181035f830152610d9b81610d62565b9050919050565b5f819050815f5260205f209050919050565b5f6020601f8301049050919050565b5f82821b905092915050565b5f60088302610dfe7fffffffffffffffffffffffffffffffffffffffffffffffffffffffffffffffff82610dc3565b610e088683610dc3565b95508019841693508086168417925050509392505050565b5f819050919050565b5f610e43610e3e610e3984610a51565b610e20565b610a51565b9050919050565b5f819050919050565b610e5c83610e29565b610e70610e6882610e4a565b848454610dcf565b825550505050565b5f90565b610e84610e78565b610e8f818484610e53565b505050565b5b81811015610eb257610ea75f82610e7c565b600181019050610e95565b5050565b601f821115610ef757610ec881610da2565b610ed184610db4565b81016020851015610ee0578190505b610ef4610eec85610db4565b830182610e94565b50505b505050565b5f82821c905092915050565b5f610f175f1984600802610efc565b1980831691505092915050565b5f610f2f8383610f08565b9150826002028217905092915050565b610f48826109d7565b67ffffffffffffffff811115610f6157610f6061086c565b5b610f6b8254610c94565b610f76828285610eb6565b5f60209050601f831160018114610fa7575f8415610f95578287015190505b610f9f8582610f24565b865550611006565b601f198416610fb586610da2565b5f5b82811015610fdc57848901518255600182019150602085019450602081019050610fb7565b86831015610ff95784890151610ff5601f891682610f08565b8355505b6001600288020188555050505b50505050505056fea2646970667358221220f59049a8aaa4642c2fc1b59c6b7cab372c1f9257ef8c1d533b603557745cca1364736f6c63430008150033",
  "immutableReferences": {},
  "source": "// SPDX-License-Identifier: MIT\r\npragma solidity ^0.8.21;\r\n\r\ncontract ProductRegistry {\r\n    struct Product {\r\n        string manufacturerID;\r\n        string productName;\r\n        string productSN;\r\n        string productBrand;\r\n        uint256 productPrice;\r\n        address manufacturer;\r\n    }\r\n\r\n    mapping(string => Product) public products;\r\n\r\n    function registerProduct(\r\n        string memory _manufacturerID,\r\n        string memory _productName,\r\n        string memory _productSN,\r\n        string memory _productBrand,\r\n        uint256 _productPrice\r\n    ) public {\r\n        // Ensure productSN is unique\r\n        require(bytes(products[_productSN].productSN).length == 0, \"Product with this Serial Number already exists\");\r\n\r\n        products[_productSN] = Product(\r\n            _manufacturerID,\r\n            _productName,\r\n            _productSN,\r\n            _productBrand,\r\n            _productPrice,\r\n            msg.sender\r\n        );\r\n    }\r\n\r\n    function getProduct(string memory _productSN)\r\n        public\r\n        view\r\n        returns (\r\n            string memory,\r\n            string memory,\r\n            string memory,\r\n            string memory,\r\n            uint256,\r\n            address\r\n        )\r\n    {\r\n        Product memory p = products[_productSN];\r\n        return (\r\n            p.manufacturerID,\r\n            p.productName,\r\n            p.productSN,\r\n            p.productBrand,\r\n            p.productPrice,\r\n            p.manufacturer\r\n        );\r\n    }\r\n\r\n    function productExists(string memory productSN) public view returns (bool) {\r\n    return bytes(products[productSN].productSN).length > 0;\r\n    }\r\n}  ",
  "sourcePath": "C:\\Users\\tarun\\projects\\supplychain-blockchain\\contracts\\ProductRegistry.sol",
  "compiler": {
    "name": "solc",
    "version": "0.8.21+commit.d9974bed.Emscripten.clang"
  },
  "schemaVersion": "3.4.16",
  "updatedAt": "2025-04-12T19:39:24.046Z",
  "networkType": "ethereum",
  "devdoc": {
    "kind": "dev",
    "methods": {},
    "version": 1
  },
  "userdoc": {
    "kind": "user",
    "methods": {},
    "version": 1
  }
}