{
  "contractName": "SalesRegistry",
  "abi": [
    {
      "inputs": [
        {
          "internalType": "uint256",
          "name": "",
          "type": "uint256"
        }
      ],
      "name": "sales",
      "outputs": [
        {
          "internalType": "string",
          "name": "sellerCode",
          "type": "string"
        },
        {
          "internalType": "string",
          "name": "productSN",
          "type": "string"
        }
      ],
      "stateMutability": "view",
      "type": "function",
      "constant": true
    },
    {
      "inputs": [
        {
          "internalType": "string",
          "name": "_sellerCode",
          "type": "string"
        },
        {
          "internalType": "string",
          "name": "_productSN",
          "type": "string"
        }
      ],
      "name": "recordSale",
      "outputs": [],
      "stateMutability": "nonpayable",
      "type": "function"
    },
    {
      "inputs": [
        {
          "internalType": "uint256",
          "name": "index",
          "type": "uint256"
        }
      ],
      "name": "getSale",
      "outputs": [
        {
          "internalType": "string",
          "name": "",
          "type": "string"
        },
        {
          "internalType": "string",
          "name": "",
          "type": "string"
        }
      ],
      "stateMutability": "view",
      "type": "function",
      "constant": true
    },
    {
      "inputs": [],
      "name": "getSalesCount",
      "outputs": [
        {
          "internalType": "uint256",
          "name": "",
          "type": "uint256"
        }
      ],
      "stateMutability": "view",
      "type": "function",
      "constant": true
    },
    {
      "inputs": [
        {
          "internalType": "string",
          "name": "_sellerCode",
          "type": "string"
        },
        {
          "internalType": "string",
          "name": "_productSN",
          "type": "string"
        }
      ],
      "name": "saleExists",
      "outputs": [
        {
          "internalType": "bool",
          "name": "",
          "type": "bool"
        }
      ],
      "stateMutability": "view",
      "type": "function",
      "constant": true
    }
  ],
  "bytecode": "0x608060405234801561000f575f80fd5b50610d298061001d5f395ff3fe608060405234801561000f575f80fd5b5060043610610055575f3560e01c80630a8bd6d014610059578063b5f522f714610075578063bc804353146100a6578063d8f6d596146100d6578063dd8027db14610107575b5f80fd5b610073600480360381019061006e9190610691565b610125565b005b61008f600480360381019061008a919061073a565b610191565b60405161009d9291906107df565b60405180910390f35b6100c060048036038101906100bb9190610691565b6102cb565b6040516100cd919061082e565b60405180910390f35b6100f060048036038101906100eb919061073a565b610391565b6040516100fe9291906107df565b60405180910390f35b61010f610539565b60405161011c9190610856565b60405180910390f35b5f604051806040016040528084815260200183815250908060018154018082558091505060019003905f5260205f2090600202015f909190919091505f820151815f0190816101749190610a69565b50602082015181600101908161018a9190610a69565b5050505050565b5f818154811061019f575f80fd5b905f5260205f2090600202015f91509050805f0180546101be9061089c565b80601f01602080910402602001604051908101604052809291908181526020018280546101ea9061089c565b80156102355780601f1061020c57610100808354040283529160200191610235565b820191905f5260205f20905b81548152906001019060200180831161021857829003601f168201915b50505050509080600101805461024a9061089c565b80601f01602080910402602001604051908101604052809291908181526020018280546102769061089c565b80156102c15780601f10610298576101008083540402835291602001916102c1565b820191905f5260205f20905b8154815290600101906020018083116102a457829003601f168201915b5050505050905082565b5f805f90505b5f805490508110156103865783805190602001205f82815481106102f8576102f7610b38565b5b905f5260205f2090600202015f016040516103139190610c01565b6040518091039020148015610364575082805190602001205f828154811061033e5761033d610b38565b5b905f5260205f20906002020160010160405161035a9190610c01565b6040518091039020145b1561037357600191505061038b565b808061037e90610c44565b9150506102d1565b505f90505b92915050565b6060805f8054905083106103da576040517f08c379a00000000000000000000000000000000000000000000000000000000081526004016103d190610cd5565b60405180910390fd5b5f8084815481106103ee576103ed610b38565b5b905f5260205f2090600202016040518060400160405290815f820180546104149061089c565b80601f01602080910402602001604051908101604052809291908181526020018280546104409061089c565b801561048b5780601f106104625761010080835404028352916020019161048b565b820191905f5260205f20905b81548152906001019060200180831161046e57829003601f168201915b505050505081526020016001820180546104a49061089c565b80601f01602080910402602001604051908101604052809291908181526020018280546104d09061089c565b801561051b5780601f106104f25761010080835404028352916020019161051b565b820191905f5260205f20905b8154815290600101906020018083116104fe57829003601f168201915b5050505050815250509050805f015181602001519250925050915091565b5f8080549050905090565b5f604051905090565b5f80fd5b5f80fd5b5f80fd5b5f80fd5b5f601f19601f8301169050919050565b7f4e487b71000000000000000000000000000000000000000000000000000000005f52604160045260245ffd5b6105a38261055d565b810181811067ffffffffffffffff821117156105c2576105c161056d565b5b80604052505050565b5f6105d4610544565b90506105e0828261059a565b919050565b5f67ffffffffffffffff8211156105ff576105fe61056d565b5b6106088261055d565b9050602081019050919050565b828183375f83830152505050565b5f610635610630846105e5565b6105cb565b90508281526020810184848401111561065157610650610559565b5b61065c848285610615565b509392505050565b5f82601f83011261067857610677610555565b5b8135610688848260208601610623565b91505092915050565b5f80604083850312156106a7576106a661054d565b5b5f83013567ffffffffffffffff8111156106c4576106c3610551565b5b6106d085828601610664565b925050602083013567ffffffffffffffff8111156106f1576106f0610551565b5b6106fd85828601610664565b9150509250929050565b5f819050919050565b61071981610707565b8114610723575f80fd5b50565b5f8135905061073481610710565b92915050565b5f6020828403121561074f5761074e61054d565b5b5f61075c84828501610726565b91505092915050565b5f81519050919050565b5f82825260208201905092915050565b5f5b8381101561079c578082015181840152602081019050610781565b5f8484015250505050565b5f6107b182610765565b6107bb818561076f565b93506107cb81856020860161077f565b6107d48161055d565b840191505092915050565b5f6040820190508181035f8301526107f781856107a7565b9050818103602083015261080b81846107a7565b90509392505050565b5f8115159050919050565b61082881610814565b82525050565b5f6020820190506108415f83018461081f565b92915050565b61085081610707565b82525050565b5f6020820190506108695f830184610847565b92915050565b7f4e487b71000000000000000000000000000000000000000000000000000000005f52602260045260245ffd5b5f60028204905060018216806108b357607f821691505b6020821081036108c6576108c561086f565b5b50919050565b5f819050815f5260205f209050919050565b5f6020601f8301049050919050565b5f82821b905092915050565b5f600883026109287fffffffffffffffffffffffffffffffffffffffffffffffffffffffffffffffff826108ed565b61093286836108ed565b95508019841693508086168417925050509392505050565b5f819050919050565b5f61096d61096861096384610707565b61094a565b610707565b9050919050565b5f819050919050565b61098683610953565b61099a61099282610974565b8484546108f9565b825550505050565b5f90565b6109ae6109a2565b6109b981848461097d565b505050565b5b818110156109dc576109d15f826109a6565b6001810190506109bf565b5050565b601f821115610a21576109f2816108cc565b6109fb846108de565b81016020851015610a0a578190505b610a1e610a16856108de565b8301826109be565b50505b505050565b5f82821c905092915050565b5f610a415f1984600802610a26565b1980831691505092915050565b5f610a598383610a32565b9150826002028217905092915050565b610a7282610765565b67ffffffffffffffff811115610a8b57610a8a61056d565b5b610a95825461089c565b610aa08282856109e0565b5f60209050601f831160018114610ad1575f8415610abf578287015190505b610ac98582610a4e565b865550610b30565b601f198416610adf866108cc565b5f5b82811015610b0657848901518255600182019150602085019450602081019050610ae1565b86831015610b235784890151610b1f601f891682610a32565b8355505b6001600288020188555050505b505050505050565b7f4e487b71000000000000000000000000000000000000000000000000000000005f52603260045260245ffd5b5f81905092915050565b5f819050815f5260205f209050919050565b5f8154610b8d8161089c565b610b978186610b65565b9450600182165f8114610bb15760018114610bc657610bf8565b60ff1983168652811515820286019350610bf8565b610bcf85610b6f565b5f5b83811015610bf057815481890152600182019150602081019050610bd1565b838801955050505b50505092915050565b5f610c0c8284610b81565b915081905092915050565b7f4e487b71000000000000000000000000000000000000000000000000000000005f52601160045260245ffd5b5f610c4e82610707565b91507fffffffffffffffffffffffffffffffffffffffffffffffffffffffffffffffff8203610c8057610c7f610c17565b5b600182019050919050565b7f496e76616c69642073616c6520696e64657800000000000000000000000000005f82015250565b5f610cbf60128361076f565b9150610cca82610c8b565b602082019050919050565b5f6020820190508181035f830152610cec81610cb3565b905091905056fea26469706673582212202f0462109eb6402341570118dc70edf9be318cd0111ba30507f1ddcbe59eeab164736f6c63430008150033",
  "immutableReferences": {},
  "source": "// SPDX-License-Identifier: MIT\r\npragma solidity ^0.8.0;\r\n\r\ncontract SalesRegistry {\r\n    struct Sale {\r\n        string sellerCode;\r\n        string productSN;\r\n    }\r\n\r\n    Sale[] public sales;\r\n\r\n    function recordSale(string memory _sellerCode, string memory _productSN) public {\r\n        sales.push(Sale(_sellerCode, _productSN));\r\n    }\r\n\r\n    function getSale(uint index) public view returns (string memory, string memory) {\r\n        require(index < sales.length, \"Invalid sale index\");\r\n        Sale memory s = sales[index];\r\n        return (s.sellerCode, s.productSN);\r\n    }\r\n\r\n    function getSalesCount() public view returns (uint) {\r\n        return sales.length;\r\n    }\r\n\r\n    //  Verify if a Sale exists with both sellerCode and productSN\r\n    function saleExists(string memory _sellerCode, string memory _productSN) public view returns (bool) {\r\n        for (uint i = 0; i < sales.length; i++) {\r\n            if (\r\n                keccak256(bytes(sales[i].sellerCode)) == keccak256(bytes(_sellerCode)) &&\r\n                keccak256(bytes(sales[i].productSN)) == keccak256(bytes(_productSN))\r\n            ) {\r\n                return true;\r\n            }\r\n        }\r\n        return false;\r\n    }\r\n}\r\n",
  "sourcePath": "T:\\Fake-Product-Identification-By-QR-code-using-blockchain\\supplychain-blockchain\\contracts\\SalesRegistry.sol",
  "compiler": {
    "name": "solc",
    "version": "0.8.21+commit.d9974bed.Emscripten.clang"
  },
  "schemaVersion": "3.4.16",
  "updatedAt": "2025-04-25T13:10:56.915Z",
  "networkType": "ethereum",
  "devdoc": {
    "kind": "dev",
    "methods": {},
    "version": 1
  },
  "userdoc": {
    "kind": "user",
    "methods": {},
    "version": 1
  }
}