{
  "contractName": "SellerRegistry",
  "abi": [
    {
      "inputs": [
        {
          "internalType": "uint256",
          "name": "",
          "type": "uint256"
        }
      ],
      "name": "sellers",
      "outputs": [
        {
          "internalType": "string",
          "name": "name",
          "type": "string"
        },
        {
          "internalType": "string",
          "name": "brand",
          "type": "string"
        },
        {
          "internalType": "string",
          "name": "code",
          "type": "string"
        },
        {
          "internalType": "string",
          "name": "phone",
          "type": "string"
        },
        {
          "internalType": "string",
          "name": "manager",
          "type": "string"
        },
        {
          "internalType": "string",
          "name": "addr",
          "type": "string"
        },
        {
          "internalType": "string",
          "name": "manufacturerID",
          "type": "string"
        }
      ],
      "stateMutability": "view",
      "type": "function",
      "constant": true
    },
    {
      "inputs": [
        {
          "internalType": "string",
          "name": "_name",
          "type": "string"
        },
        {
          "internalType": "string",
          "name": "_brand",
          "type": "string"
        },
        {
          "internalType": "string",
          "name": "_code",
          "type": "string"
        },
        {
          "internalType": "string",
          "name": "_phone",
          "type": "string"
        },
        {
          "internalType": "string",
          "name": "_manager",
          "type": "string"
        },
        {
          "internalType": "string",
          "name": "_addr",
          "type": "string"
        },
        {
          "internalType": "string",
          "name": "_manufacturerID",
          "type": "string"
        }
      ],
      "name": "registerSeller",
      "outputs": [],
      "stateMutability": "nonpayable",
      "type": "function"
    },
    {
      "inputs": [
        {
          "internalType": "uint256",
          "name": "index",
          "type": "uint256"
        }
      ],
      "name": "getSeller",
      "outputs": [
        {
          "internalType": "string",
          "name": "",
          "type": "string"
        },
        {
          "internalType": "string",
          "name": "",
          "type": "string"
        },
        {
          "internalType": "string",
          "name": "",
          "type": "string"
        },
        {
          "internalType": "string",
          "name": "",
          "type": "string"
        },
        {
          "internalType": "string",
          "name": "",
          "type": "string"
        },
        {
          "internalType": "string",
          "name": "",
          "type": "string"
        },
        {
          "internalType": "string",
          "name": "",
          "type": "string"
        }
      ],
      "stateMutability": "view",
      "type": "function",
      "constant": true
    },
    {
      "inputs": [],
      "name": "getSellerCount",
      "outputs": [
        {
          "internalType": "uint256",
          "name": "",
          "type": "uint256"
        }
      ],
      "stateMutability": "view",
      "type": "function",
      "constant": true
    },
    {
      "inputs": [
        {
          "internalType": "string",
          "name": "sellerCode",
          "type": "string"
        }
      ],
      "name": "sellerExists",
      "outputs": [
        {
          "internalType": "bool",
          "name": "",
          "type": "bool"
        }
      ],
      "stateMutability": "view",
      "type": "function",
      "constant": true
    },
    {
      "inputs": [
        {
          "internalType": "string",
          "name": "sellerCode",
          "type": "string"
        }
      ],
      "name": "getSellerByCode",
      "outputs": [
        {
          "internalType": "string",
          "name": "",
          "type": "string"
        },
        {
          "internalType": "string",
          "name": "",
          "type": "string"
        },
        {
          "internalType": "string",
          "name": "",
          "type": "string"
        },
        {
          "internalType": "string",
          "name": "",
          "type": "string"
        },
        {
          "internalType": "string",
          "name": "",
          "type": "string"
        },
        {
          "internalType": "string",
          "name": "",
          "type": "string"
        },
        {
          "internalType": "string",
          "name": "",
          "type": "string"
        }
      ],
      "stateMutability": "view",
      "type": "function",
      "constant": true
    }
  ],
  "bytecode": "0x608060405234801561000f575f80fd5b50611a868061001d5f395ff3fe608060405234801561000f575f80fd5b5060043610610060575f3560e01c80634c951bdb146100645780634f51462f1461009a5780637cac07af146100b6578063a07ffe80146100d4578063cee26ed514610104578063d6a9de511461013a575b5f80fd5b61007e600480360381019061007991906111eb565b610170565b60405161009197969594939291906112ac565b60405180910390f35b6100b460048036038101906100af919061134a565b61067a565b005b6100be610777565b6040516100cb91906114c3565b60405180910390f35b6100ee60048036038101906100e991906111eb565b610782565b6040516100fb91906114f6565b60405180910390f35b61011e60048036038101906101199190611539565b6107ff565b60405161013197969594939291906112ac565b60405180910390f35b610154600480360381019061014f9190611539565b610bf5565b60405161016797969594939291906112ac565b60405180910390f35b60608060608060608060605f5b5f805490508110156106335788805190602001205f82815481106101a4576101a3611564565b5b905f5260205f2090600702016002016040516101c0919061168a565b604051809103902003610620575f8082815481106101e1576101e0611564565b5b905f5260205f2090600702016040518060e00160405290815f82018054610207906115be565b80601f0160208091040260200160405190810160405280929190818152602001828054610233906115be565b801561027e5780601f106102555761010080835404028352916020019161027e565b820191905f5260205f20905b81548152906001019060200180831161026157829003601f168201915b50505050508152602001600182018054610297906115be565b80601f01602080910402602001604051908101604052809291908181526020018280546102c3906115be565b801561030e5780601f106102e55761010080835404028352916020019161030e565b820191905f5260205f20905b8154815290600101906020018083116102f157829003601f168201915b50505050508152602001600282018054610327906115be565b80601f0160208091040260200160405190810160405280929190818152602001828054610353906115be565b801561039e5780601f106103755761010080835404028352916020019161039e565b820191905f5260205f20905b81548152906001019060200180831161038157829003601f168201915b505050505081526020016003820180546103b7906115be565b80601f01602080910402602001604051908101604052809291908181526020018280546103e3906115be565b801561042e5780601f106104055761010080835404028352916020019161042e565b820191905f5260205f20905b81548152906001019060200180831161041157829003601f168201915b50505050508152602001600482018054610447906115be565b80601f0160208091040260200160405190810160405280929190818152602001828054610473906115be565b80156104be5780601f10610495576101008083540402835291602001916104be565b820191905f5260205f20905b8154815290600101906020018083116104a157829003601f168201915b505050505081526020016005820180546104d7906115be565b80601f0160208091040260200160405190810160405280929190818152602001828054610503906115be565b801561054e5780601f106105255761010080835404028352916020019161054e565b820191905f5260205f20905b81548152906001019060200180831161053157829003601f168201915b50505050508152602001600682018054610567906115be565b80601f0160208091040260200160405190810160405280929190818152602001828054610593906115be565b80156105de5780601f106105b5576101008083540402835291602001916105de565b820191905f5260205f20905b8154815290600101906020018083116105c157829003601f168201915b5050505050815250509050805f015181602001518260400151836060015184608001518560a001518660c001519850985098509850985098509850505061066f565b808061062b906116cd565b91505061017d565b506040517f08c379a00000000000000000000000000000000000000000000000000000000081526004016106669061175e565b60405180910390fd5b919395979092949650565b5f6040518060e0016040528089815260200188815260200187815260200186815260200185815260200184815260200183815250908060018154018082558091505060019003905f5260205f2090600702015f909190919091505f820151815f0190816106e79190611919565b5060208201518160010190816106fd9190611919565b5060408201518160020190816107139190611919565b5060608201518160030190816107299190611919565b50608082015181600401908161073f9190611919565b5060a08201518160050190816107559190611919565b5060c082015181600601908161076b9190611919565b50505050505050505050565b5f8080549050905090565b5f805f90505b5f805490508110156107f55782805190602001205f82815481106107af576107ae611564565b5b905f5260205f2090600702016002016040516107cb919061168a565b6040518091039020036107e25760019150506107fa565b80806107ed906116cd565b915050610788565b505f90505b919050565b5f818154811061080d575f80fd5b905f5260205f2090600702015f91509050805f01805461082c906115be565b80601f0160208091040260200160405190810160405280929190818152602001828054610858906115be565b80156108a35780601f1061087a576101008083540402835291602001916108a3565b820191905f5260205f20905b81548152906001019060200180831161088657829003601f168201915b5050505050908060010180546108b8906115be565b80601f01602080910402602001604051908101604052809291908181526020018280546108e4906115be565b801561092f5780601f106109065761010080835404028352916020019161092f565b820191905f5260205f20905b81548152906001019060200180831161091257829003601f168201915b505050505090806002018054610944906115be565b80601f0160208091040260200160405190810160405280929190818152602001828054610970906115be565b80156109bb5780601f10610992576101008083540402835291602001916109bb565b820191905f5260205f20905b81548152906001019060200180831161099e57829003601f168201915b5050505050908060030180546109d0906115be565b80601f01602080910402602001604051908101604052809291908181526020018280546109fc906115be565b8015610a475780601f10610a1e57610100808354040283529160200191610a47565b820191905f5260205f20905b815481529060010190602001808311610a2a57829003601f168201915b505050505090806004018054610a5c906115be565b80601f0160208091040260200160405190810160405280929190818152602001828054610a88906115be565b8015610ad35780601f10610aaa57610100808354040283529160200191610ad3565b820191905f5260205f20905b815481529060010190602001808311610ab657829003601f168201915b505050505090806005018054610ae8906115be565b80601f0160208091040260200160405190810160405280929190818152602001828054610b14906115be565b8015610b5f5780601f10610b3657610100808354040283529160200191610b5f565b820191905f5260205f20905b815481529060010190602001808311610b4257829003601f168201915b505050505090806006018054610b74906115be565b80601f0160208091040260200160405190810160405280929190818152602001828054610ba0906115be565b8015610beb5780601f10610bc257610100808354040283529160200191610beb565b820191905f5260205f20905b815481529060010190602001808311610bce57829003601f168201915b5050505050905087565b60608060608060608060605f805490508810610c46576040517f08c379a0000000000000000000000000000000000000000000000000000000008152600401610c3d90611a32565b60405180910390fd5b5f808981548110610c5a57610c59611564565b5b905f5260205f2090600702016040518060e00160405290815f82018054610c80906115be565b80601f0160208091040260200160405190810160405280929190818152602001828054610cac906115be565b8015610cf75780601f10610cce57610100808354040283529160200191610cf7565b820191905f5260205f20905b815481529060010190602001808311610cda57829003601f168201915b50505050508152602001600182018054610d10906115be565b80601f0160208091040260200160405190810160405280929190818152602001828054610d3c906115be565b8015610d875780601f10610d5e57610100808354040283529160200191610d87565b820191905f5260205f20905b815481529060010190602001808311610d6a57829003601f168201915b50505050508152602001600282018054610da0906115be565b80601f0160208091040260200160405190810160405280929190818152602001828054610dcc906115be565b8015610e175780601f10610dee57610100808354040283529160200191610e17565b820191905f5260205f20905b815481529060010190602001808311610dfa57829003601f168201915b50505050508152602001600382018054610e30906115be565b80601f0160208091040260200160405190810160405280929190818152602001828054610e5c906115be565b8015610ea75780601f10610e7e57610100808354040283529160200191610ea7565b820191905f5260205f20905b815481529060010190602001808311610e8a57829003601f168201915b50505050508152602001600482018054610ec0906115be565b80601f0160208091040260200160405190810160405280929190818152602001828054610eec906115be565b8015610f375780601f10610f0e57610100808354040283529160200191610f37565b820191905f5260205f20905b815481529060010190602001808311610f1a57829003601f168201915b50505050508152602001600582018054610f50906115be565b80601f0160208091040260200160405190810160405280929190818152602001828054610f7c906115be565b8015610fc75780601f10610f9e57610100808354040283529160200191610fc7565b820191905f5260205f20905b815481529060010190602001808311610faa57829003601f168201915b50505050508152602001600682018054610fe0906115be565b80601f016020809104026020016040519081016040528092919081815260200182805461100c906115be565b80156110575780601f1061102e57610100808354040283529160200191611057565b820191905f5260205f20905b81548152906001019060200180831161103a57829003601f168201915b5050505050815250509050805f015181602001518260400151836060015184608001518560a001518660c00151975097509750975097509750975050919395979092949650565b5f604051905090565b5f80fd5b5f80fd5b5f80fd5b5f80fd5b5f601f19601f8301169050919050565b7f4e487b71000000000000000000000000000000000000000000000000000000005f52604160045260245ffd5b6110fd826110b7565b810181811067ffffffffffffffff8211171561111c5761111b6110c7565b5b80604052505050565b5f61112e61109e565b905061113a82826110f4565b919050565b5f67ffffffffffffffff821115611159576111586110c7565b5b611162826110b7565b9050602081019050919050565b828183375f83830152505050565b5f61118f61118a8461113f565b611125565b9050828152602081018484840111156111ab576111aa6110b3565b5b6111b684828561116f565b509392505050565b5f82601f8301126111d2576111d16110af565b5b81356111e284826020860161117d565b91505092915050565b5f60208284031215611200576111ff6110a7565b5b5f82013567ffffffffffffffff81111561121d5761121c6110ab565b5b611229848285016111be565b91505092915050565b5f81519050919050565b5f82825260208201905092915050565b5f5b8381101561126957808201518184015260208101905061124e565b5f8484015250505050565b5f61127e82611232565b611288818561123c565b935061129881856020860161124c565b6112a1816110b7565b840191505092915050565b5f60e0820190508181035f8301526112c4818a611274565b905081810360208301526112d88189611274565b905081810360408301526112ec8188611274565b905081810360608301526113008187611274565b905081810360808301526113148186611274565b905081810360a08301526113288185611274565b905081810360c083015261133c8184611274565b905098975050505050505050565b5f805f805f805f60e0888a031215611365576113646110a7565b5b5f88013567ffffffffffffffff811115611382576113816110ab565b5b61138e8a828b016111be565b975050602088013567ffffffffffffffff8111156113af576113ae6110ab565b5b6113bb8a828b016111be565b965050604088013567ffffffffffffffff8111156113dc576113db6110ab565b5b6113e88a828b016111be565b955050606088013567ffffffffffffffff811115611409576114086110ab565b5b6114158a828b016111be565b945050608088013567ffffffffffffffff811115611436576114356110ab565b5b6114428a828b016111be565b93505060a088013567ffffffffffffffff811115611463576114626110ab565b5b61146f8a828b016111be565b92505060c088013567ffffffffffffffff8111156114905761148f6110ab565b5b61149c8a828b016111be565b91505092959891949750929550565b5f819050919050565b6114bd816114ab565b82525050565b5f6020820190506114d65f8301846114b4565b92915050565b5f8115159050919050565b6114f0816114dc565b82525050565b5f6020820190506115095f8301846114e7565b92915050565b611518816114ab565b8114611522575f80fd5b50565b5f813590506115338161150f565b92915050565b5f6020828403121561154e5761154d6110a7565b5b5f61155b84828501611525565b91505092915050565b7f4e487b71000000000000000000000000000000000000000000000000000000005f52603260045260245ffd5b7f4e487b71000000000000000000000000000000000000000000000000000000005f52602260045260245ffd5b5f60028204905060018216806115d557607f821691505b6020821081036115e8576115e7611591565b5b50919050565b5f81905092915050565b5f819050815f5260205f209050919050565b5f8154611616816115be565b61162081866115ee565b9450600182165f811461163a576001811461164f57611681565b60ff1983168652811515820286019350611681565b611658856115f8565b5f5b838110156116795781548189015260018201915060208101905061165a565b838801955050505b50505092915050565b5f611695828461160a565b915081905092915050565b7f4e487b71000000000000000000000000000000000000000000000000000000005f52601160045260245ffd5b5f6116d7826114ab565b91507fffffffffffffffffffffffffffffffffffffffffffffffffffffffffffffffff8203611709576117086116a0565b5b600182019050919050565b7f53656c6c6572206e6f7420666f756e64000000000000000000000000000000005f82015250565b5f61174860108361123c565b915061175382611714565b602082019050919050565b5f6020820190508181035f8301526117758161173c565b9050919050565b5f819050815f5260205f209050919050565b5f6020601f8301049050919050565b5f82821b905092915050565b5f600883026117d87fffffffffffffffffffffffffffffffffffffffffffffffffffffffffffffffff8261179d565b6117e2868361179d565b95508019841693508086168417925050509392505050565b5f819050919050565b5f61181d611818611813846114ab565b6117fa565b6114ab565b9050919050565b5f819050919050565b61183683611803565b61184a61184282611824565b8484546117a9565b825550505050565b5f90565b61185e611852565b61186981848461182d565b505050565b5b8181101561188c576118815f82611856565b60018101905061186f565b5050565b601f8211156118d1576118a28161177c565b6118ab8461178e565b810160208510156118ba578190505b6118ce6118c68561178e565b83018261186e565b50505b505050565b5f82821c905092915050565b5f6118f15f19846008026118d6565b1980831691505092915050565b5f61190983836118e2565b9150826002028217905092915050565b61192282611232565b67ffffffffffffffff81111561193b5761193a6110c7565b5b61194582546115be565b611950828285611890565b5f60209050601f831160018114611981575f841561196f578287015190505b61197985826118fe565b8655506119e0565b601f19841661198f8661177c565b5f5b828110156119b657848901518255600182019150602085019450602081019050611991565b868310156119d357848901516119cf601f8916826118e2565b8355505b6001600288020188555050505b505050505050565b7f496e646578206f7574206f662072616e676500000000000000000000000000005f82015250565b5f611a1c60128361123c565b9150611a27826119e8565b602082019050919050565b5f6020820190508181035f830152611a4981611a10565b905091905056fea2646970667358221220978d07f83051f0fb12fc3ee1d6042d5ceed69881532ee423a8f7ecd804b2780f64736f6c63430008150033",
  "immutableReferences": {},
  "source": "// SPDX-License-Identifier: MIT\r\npragma solidity ^0.8.0;\r\n\r\ncontract SellerRegistry {\r\n    struct Seller {\r\n        string name;\r\n        string brand;\r\n        string code;\r\n        string phone;\r\n        string manager;\r\n        string addr;\r\n        string manufacturerID;\r\n    }\r\n\r\n    Seller[] public sellers;\r\n\r\n    function registerSeller(\r\n        string memory _name,\r\n        string memory _brand,\r\n        string memory _code,\r\n        string memory _phone,\r\n        string memory _manager,\r\n        string memory _addr,\r\n        string memory _manufacturerID\r\n    ) public {\r\n        sellers.push(Seller(_name, _brand, _code, _phone, _manager, _addr, _manufacturerID));\r\n    }\r\n\r\n    function getSeller(uint index) public view returns (\r\n        string memory, string memory, string memory,\r\n        string memory, string memory, string memory, string memory\r\n    ) {\r\n        require(index < sellers.length, \"Index out of range\");\r\n        Seller memory s = sellers[index];\r\n        return (s.name, s.brand, s.code, s.phone, s.manager, s.addr, s.manufacturerID);\r\n    }\r\n\r\n    function getSellerCount() public view returns (uint) {\r\n        return sellers.length;\r\n    }\r\n\r\n    function sellerExists(string memory sellerCode) public view returns (bool) {\r\n        for (uint i = 0; i < sellers.length; i++) {\r\n            if (keccak256(bytes(sellers[i].code)) == keccak256(bytes(sellerCode))) {\r\n                return true;\r\n            }\r\n        }\r\n        return false;\r\n    }\r\n\r\n    function getSellerByCode(string memory sellerCode) public view returns (\r\n        string memory, string memory, string memory,\r\n        string memory, string memory, string memory, string memory\r\n    ) {\r\n        for (uint i = 0; i < sellers.length; i++) {\r\n            if (keccak256(bytes(sellers[i].code)) == keccak256(bytes(sellerCode))) {\r\n                Seller memory s = sellers[i];\r\n                return (s.name, s.brand, s.code, s.phone, s.manager, s.addr, s.manufacturerID);\r\n            }\r\n        }\r\n        revert(\"Seller not found\");\r\n    }\r\n}\r\n",
  "sourcePath": "C:\\Users\\tarun\\projects\\supplychain-blockchain\\contracts\\SellerRegistry.sol",
  "compiler": {
    "name": "solc",
    "version": "0.8.21+commit.d9974bed.Emscripten.clang"
  },
  "schemaVersion": "3.4.16",
  "updatedAt": "2025-04-12T14:18:17.325Z",
  "networkType": "ethereum",
  "devdoc": {
    "kind": "dev",
    "methods": {},
    "version": 1
  },
  "userdoc": {
    "kind": "user",
    "methods": {},
    "version": 1
  }
}