{
  "contractName": "SellerRegistry",
  "abi": [
    {
      "inputs": [
        {
          "internalType": "address",
          "name": "_productRegistryAddress",
          "type": "address"
        }
      ],
      "stateMutability": "nonpayable",
      "type": "constructor"
    },
    {
      "inputs": [],
      "name": "productRegistry",
      "outputs": [
        {
          "internalType": "contract ProductRegistry",
          "name": "",
          "type": "address"
        }
      ],
      "stateMutability": "view",
      "type": "function",
      "constant": true
    },
    {
      "inputs": [
        {
          "internalType": "uint256",
          "name": "",
          "type": "uint256"
        }
      ],
      "name": "sellers",
      "outputs": [
        {
          "internalType": "string",
          "name": "name",
          "type": "string"
        },
        {
          "internalType": "string",
          "name": "brand",
          "type": "string"
        },
        {
          "internalType": "string",
          "name": "code",
          "type": "string"
        },
        {
          "internalType": "string",
          "name": "phone",
          "type": "string"
        },
        {
          "internalType": "string",
          "name": "manager",
          "type": "string"
        },
        {
          "internalType": "string",
          "name": "addr",
          "type": "string"
        },
        {
          "internalType": "string",
          "name": "manufacturerID",
          "type": "string"
        }
      ],
      "stateMutability": "view",
      "type": "function",
      "constant": true
    },
    {
      "inputs": [
        {
          "internalType": "string",
          "name": "_name",
          "type": "string"
        },
        {
          "internalType": "string",
          "name": "_brand",
          "type": "string"
        },
        {
          "internalType": "string",
          "name": "_code",
          "type": "string"
        },
        {
          "internalType": "string",
          "name": "_phone",
          "type": "string"
        },
        {
          "internalType": "string",
          "name": "_manager",
          "type": "string"
        },
        {
          "internalType": "string",
          "name": "_addr",
          "type": "string"
        },
        {
          "internalType": "string",
          "name": "_manufacturerID",
          "type": "string"
        }
      ],
      "name": "registerSeller",
      "outputs": [],
      "stateMutability": "nonpayable",
      "type": "function"
    },
    {
      "inputs": [
        {
          "internalType": "uint256",
          "name": "index",
          "type": "uint256"
        }
      ],
      "name": "getSeller",
      "outputs": [
        {
          "internalType": "string",
          "name": "",
          "type": "string"
        },
        {
          "internalType": "string",
          "name": "",
          "type": "string"
        },
        {
          "internalType": "string",
          "name": "",
          "type": "string"
        },
        {
          "internalType": "string",
          "name": "",
          "type": "string"
        },
        {
          "internalType": "string",
          "name": "",
          "type": "string"
        },
        {
          "internalType": "string",
          "name": "",
          "type": "string"
        },
        {
          "internalType": "string",
          "name": "",
          "type": "string"
        }
      ],
      "stateMutability": "view",
      "type": "function",
      "constant": true
    },
    {
      "inputs": [],
      "name": "getSellerCount",
      "outputs": [
        {
          "internalType": "uint256",
          "name": "",
          "type": "uint256"
        }
      ],
      "stateMutability": "view",
      "type": "function",
      "constant": true
    },
    {
      "inputs": [
        {
          "internalType": "string",
          "name": "sellerCode",
          "type": "string"
        }
      ],
      "name": "sellerExists",
      "outputs": [
        {
          "internalType": "bool",
          "name": "",
          "type": "bool"
        }
      ],
      "stateMutability": "view",
      "type": "function",
      "constant": true
    },
    {
      "inputs": [
        {
          "internalType": "string",
          "name": "sellerCode",
          "type": "string"
        }
      ],
      "name": "getSellerByCode",
      "outputs": [
        {
          "internalType": "string",
          "name": "",
          "type": "string"
        },
        {
          "internalType": "string",
          "name": "",
          "type": "string"
        },
        {
          "internalType": "string",
          "name": "",
          "type": "string"
        },
        {
          "internalType": "string",
          "name": "",
          "type": "string"
        },
        {
          "internalType": "string",
          "name": "",
          "type": "string"
        },
        {
          "internalType": "string",
          "name": "",
          "type": "string"
        },
        {
          "internalType": "string",
          "name": "",
          "type": "string"
        }
      ],
      "stateMutability": "view",
      "type": "function",
      "constant": true
    }
  ],
  "bytecode": "0x608060405234801562000010575f80fd5b5060405162001e6938038062001e698339818101604052810190620000369190620000e2565b8060015f6101000a81548173ffffffffffffffffffffffffffffffffffffffff021916908373ffffffffffffffffffffffffffffffffffffffff1602179055505062000112565b5f80fd5b5f73ffffffffffffffffffffffffffffffffffffffff82169050919050565b5f620000ac8262000081565b9050919050565b620000be81620000a0565b8114620000c9575f80fd5b50565b5f81519050620000dc81620000b3565b92915050565b5f60208284031215620000fa57620000f96200007d565b5b5f6200010984828501620000cc565b91505092915050565b611d4980620001205f395ff3fe608060405234801561000f575f80fd5b506004361061007b575f3560e01c8063a07ffe8011610059578063a07ffe80146100ef578063cee26ed51461011f578063d6a9de5114610155578063fff218c31461018b5761007b565b80634c951bdb1461007f5780634f51462f146100b55780637cac07af146100d1575b5f80fd5b61009960048036038101906100949190611321565b6101a9565b6040516100ac97969594939291906113e2565b60405180910390f35b6100cf60048036038101906100ca9190611480565b6106b3565b005b6100d9610888565b6040516100e691906115f9565b60405180910390f35b61010960048036038101906101049190611321565b610893565b604051610116919061162c565b60405180910390f35b6101396004803603810190610134919061166f565b610910565b60405161014c97969594939291906113e2565b60405180910390f35b61016f600480360381019061016a919061166f565b610d06565b60405161018297969594939291906113e2565b60405180910390f35b6101936111af565b6040516101a09190611714565b60405180910390f35b60608060608060608060605f5b5f8054905081101561066c5788805190602001205f82815481106101dd576101dc61172d565b5b905f5260205f2090600702016002016040516101f99190611853565b604051809103902003610659575f80828154811061021a5761021961172d565b5b905f5260205f2090600702016040518060e00160405290815f8201805461024090611787565b80601f016020809104026020016040519081016040528092919081815260200182805461026c90611787565b80156102b75780601f1061028e576101008083540402835291602001916102b7565b820191905f5260205f20905b81548152906001019060200180831161029a57829003601f168201915b505050505081526020016001820180546102d090611787565b80601f01602080910402602001604051908101604052809291908181526020018280546102fc90611787565b80156103475780601f1061031e57610100808354040283529160200191610347565b820191905f5260205f20905b81548152906001019060200180831161032a57829003601f168201915b5050505050815260200160028201805461036090611787565b80601f016020809104026020016040519081016040528092919081815260200182805461038c90611787565b80156103d75780601f106103ae576101008083540402835291602001916103d7565b820191905f5260205f20905b8154815290600101906020018083116103ba57829003601f168201915b505050505081526020016003820180546103f090611787565b80601f016020809104026020016040519081016040528092919081815260200182805461041c90611787565b80156104675780601f1061043e57610100808354040283529160200191610467565b820191905f5260205f20905b81548152906001019060200180831161044a57829003601f168201915b5050505050815260200160048201805461048090611787565b80601f01602080910402602001604051908101604052809291908181526020018280546104ac90611787565b80156104f75780601f106104ce576101008083540402835291602001916104f7565b820191905f5260205f20905b8154815290600101906020018083116104da57829003601f168201915b5050505050815260200160058201805461051090611787565b80601f016020809104026020016040519081016040528092919081815260200182805461053c90611787565b80156105875780601f1061055e57610100808354040283529160200191610587565b820191905f5260205f20905b81548152906001019060200180831161056a57829003601f168201915b505050505081526020016006820180546105a090611787565b80601f01602080910402602001604051908101604052809291908181526020018280546105cc90611787565b80156106175780601f106105ee57610100808354040283529160200191610617565b820191905f5260205f20905b8154815290600101906020018083116105fa57829003601f168201915b5050505050815250509050805f015181602001518260400151836060015184608001518560a001518660c00151985098509850985098509850985050506106a8565b808061066490611896565b9150506101b6565b506040517f08c379a000000000000000000000000000000000000000000000000000000000815260040161069f90611927565b60405180910390fd5b919395979092949650565b60015f9054906101000a900473ffffffffffffffffffffffffffffffffffffffff1673ffffffffffffffffffffffffffffffffffffffff166354328fe1826040518263ffffffff1660e01b815260040161070d9190611945565b602060405180830381865afa158015610728573d5f803e3d5ffd5b505050506040513d601f19601f8201168201806040525081019061074c919061198f565b61078b576040517f08c379a000000000000000000000000000000000000000000000000000000000815260040161078290611a2a565b60405180910390fd5b5f6040518060e0016040528089815260200188815260200187815260200186815260200185815260200184815260200183815250908060018154018082558091505060019003905f5260205f2090600702015f909190919091505f820151815f0190816107f89190611bdc565b50602082015181600101908161080e9190611bdc565b5060408201518160020190816108249190611bdc565b50606082015181600301908161083a9190611bdc565b5060808201518160040190816108509190611bdc565b5060a08201518160050190816108669190611bdc565b5060c082015181600601908161087c9190611bdc565b50505050505050505050565b5f8080549050905090565b5f805f90505b5f805490508110156109065782805190602001205f82815481106108c0576108bf61172d565b5b905f5260205f2090600702016002016040516108dc9190611853565b6040518091039020036108f357600191505061090b565b80806108fe90611896565b915050610899565b505f90505b919050565b5f818154811061091e575f80fd5b905f5260205f2090600702015f91509050805f01805461093d90611787565b80601f016020809104026020016040519081016040528092919081815260200182805461096990611787565b80156109b45780601f1061098b576101008083540402835291602001916109b4565b820191905f5260205f20905b81548152906001019060200180831161099757829003601f168201915b5050505050908060010180546109c990611787565b80601f01602080910402602001604051908101604052809291908181526020018280546109f590611787565b8015610a405780601f10610a1757610100808354040283529160200191610a40565b820191905f5260205f20905b815481529060010190602001808311610a2357829003601f168201915b505050505090806002018054610a5590611787565b80601f0160208091040260200160405190810160405280929190818152602001828054610a8190611787565b8015610acc5780601f10610aa357610100808354040283529160200191610acc565b820191905f5260205f20905b815481529060010190602001808311610aaf57829003601f168201915b505050505090806003018054610ae190611787565b80601f0160208091040260200160405190810160405280929190818152602001828054610b0d90611787565b8015610b585780601f10610b2f57610100808354040283529160200191610b58565b820191905f5260205f20905b815481529060010190602001808311610b3b57829003601f168201915b505050505090806004018054610b6d90611787565b80601f0160208091040260200160405190810160405280929190818152602001828054610b9990611787565b8015610be45780601f10610bbb57610100808354040283529160200191610be4565b820191905f5260205f20905b815481529060010190602001808311610bc757829003601f168201915b505050505090806005018054610bf990611787565b80601f0160208091040260200160405190810160405280929190818152602001828054610c2590611787565b8015610c705780601f10610c4757610100808354040283529160200191610c70565b820191905f5260205f20905b815481529060010190602001808311610c5357829003601f168201915b505050505090806006018054610c8590611787565b80601f0160208091040260200160405190810160405280929190818152602001828054610cb190611787565b8015610cfc5780601f10610cd357610100808354040283529160200191610cfc565b820191905f5260205f20905b815481529060010190602001808311610cdf57829003601f168201915b5050505050905087565b60608060608060608060605f805490508810610d57576040517f08c379a0000000000000000000000000000000000000000000000000000000008152600401610d4e90611cf5565b60405180910390fd5b5f808981548110610d6b57610d6a61172d565b5b905f5260205f2090600702016040518060e00160405290815f82018054610d9190611787565b80601f0160208091040260200160405190810160405280929190818152602001828054610dbd90611787565b8015610e085780601f10610ddf57610100808354040283529160200191610e08565b820191905f5260205f20905b815481529060010190602001808311610deb57829003601f168201915b50505050508152602001600182018054610e2190611787565b80601f0160208091040260200160405190810160405280929190818152602001828054610e4d90611787565b8015610e985780601f10610e6f57610100808354040283529160200191610e98565b820191905f5260205f20905b815481529060010190602001808311610e7b57829003601f168201915b50505050508152602001600282018054610eb190611787565b80601f0160208091040260200160405190810160405280929190818152602001828054610edd90611787565b8015610f285780601f10610eff57610100808354040283529160200191610f28565b820191905f5260205f20905b815481529060010190602001808311610f0b57829003601f168201915b50505050508152602001600382018054610f4190611787565b80601f0160208091040260200160405190810160405280929190818152602001828054610f6d90611787565b8015610fb85780601f10610f8f57610100808354040283529160200191610fb8565b820191905f5260205f20905b815481529060010190602001808311610f9b57829003601f168201915b50505050508152602001600482018054610fd190611787565b80601f0160208091040260200160405190810160405280929190818152602001828054610ffd90611787565b80156110485780601f1061101f57610100808354040283529160200191611048565b820191905f5260205f20905b81548152906001019060200180831161102b57829003601f168201915b5050505050815260200160058201805461106190611787565b80601f016020809104026020016040519081016040528092919081815260200182805461108d90611787565b80156110d85780601f106110af576101008083540402835291602001916110d8565b820191905f5260205f20905b8154815290600101906020018083116110bb57829003601f168201915b505050505081526020016006820180546110f190611787565b80601f016020809104026020016040519081016040528092919081815260200182805461111d90611787565b80156111685780601f1061113f57610100808354040283529160200191611168565b820191905f5260205f20905b81548152906001019060200180831161114b57829003601f168201915b5050505050815250509050805f015181602001518260400151836060015184608001518560a001518660c00151975097509750975097509750975050919395979092949650565b60015f9054906101000a900473ffffffffffffffffffffffffffffffffffffffff1681565b5f604051905090565b5f80fd5b5f80fd5b5f80fd5b5f80fd5b5f601f19601f8301169050919050565b7f4e487b71000000000000000000000000000000000000000000000000000000005f52604160045260245ffd5b611233826111ed565b810181811067ffffffffffffffff82111715611252576112516111fd565b5b80604052505050565b5f6112646111d4565b9050611270828261122a565b919050565b5f67ffffffffffffffff82111561128f5761128e6111fd565b5b611298826111ed565b9050602081019050919050565b828183375f83830152505050565b5f6112c56112c084611275565b61125b565b9050828152602081018484840111156112e1576112e06111e9565b5b6112ec8482856112a5565b509392505050565b5f82601f830112611308576113076111e5565b5b81356113188482602086016112b3565b91505092915050565b5f60208284031215611336576113356111dd565b5b5f82013567ffffffffffffffff811115611353576113526111e1565b5b61135f848285016112f4565b91505092915050565b5f81519050919050565b5f82825260208201905092915050565b5f5b8381101561139f578082015181840152602081019050611384565b5f8484015250505050565b5f6113b482611368565b6113be8185611372565b93506113ce818560208601611382565b6113d7816111ed565b840191505092915050565b5f60e0820190508181035f8301526113fa818a6113aa565b9050818103602083015261140e81896113aa565b9050818103604083015261142281886113aa565b9050818103606083015261143681876113aa565b9050818103608083015261144a81866113aa565b905081810360a083015261145e81856113aa565b905081810360c083015261147281846113aa565b905098975050505050505050565b5f805f805f805f60e0888a03121561149b5761149a6111dd565b5b5f88013567ffffffffffffffff8111156114b8576114b76111e1565b5b6114c48a828b016112f4565b975050602088013567ffffffffffffffff8111156114e5576114e46111e1565b5b6114f18a828b016112f4565b965050604088013567ffffffffffffffff811115611512576115116111e1565b5b61151e8a828b016112f4565b955050606088013567ffffffffffffffff81111561153f5761153e6111e1565b5b61154b8a828b016112f4565b945050608088013567ffffffffffffffff81111561156c5761156b6111e1565b5b6115788a828b016112f4565b93505060a088013567ffffffffffffffff811115611599576115986111e1565b5b6115a58a828b016112f4565b92505060c088013567ffffffffffffffff8111156115c6576115c56111e1565b5b6115d28a828b016112f4565b91505092959891949750929550565b5f819050919050565b6115f3816115e1565b82525050565b5f60208201905061160c5f8301846115ea565b92915050565b5f8115159050919050565b61162681611612565b82525050565b5f60208201905061163f5f83018461161d565b92915050565b61164e816115e1565b8114611658575f80fd5b50565b5f8135905061166981611645565b92915050565b5f60208284031215611684576116836111dd565b5b5f6116918482850161165b565b91505092915050565b5f73ffffffffffffffffffffffffffffffffffffffff82169050919050565b5f819050919050565b5f6116dc6116d76116d28461169a565b6116b9565b61169a565b9050919050565b5f6116ed826116c2565b9050919050565b5f6116fe826116e3565b9050919050565b61170e816116f4565b82525050565b5f6020820190506117275f830184611705565b92915050565b7f4e487b71000000000000000000000000000000000000000000000000000000005f52603260045260245ffd5b7f4e487b71000000000000000000000000000000000000000000000000000000005f52602260045260245ffd5b5f600282049050600182168061179e57607f821691505b6020821081036117b1576117b061175a565b5b50919050565b5f81905092915050565b5f819050815f5260205f209050919050565b5f81546117df81611787565b6117e981866117b7565b9450600182165f811461180357600181146118185761184a565b60ff198316865281151582028601935061184a565b611821856117c1565b5f5b8381101561184257815481890152600182019150602081019050611823565b838801955050505b50505092915050565b5f61185e82846117d3565b915081905092915050565b7f4e487b71000000000000000000000000000000000000000000000000000000005f52601160045260245ffd5b5f6118a0826115e1565b91507fffffffffffffffffffffffffffffffffffffffffffffffffffffffffffffffff82036118d2576118d1611869565b5b600182019050919050565b7f53656c6c6572206e6f7420666f756e64000000000000000000000000000000005f82015250565b5f611911601083611372565b915061191c826118dd565b602082019050919050565b5f6020820190508181035f83015261193e81611905565b9050919050565b5f6020820190508181035f83015261195d81846113aa565b905092915050565b61196e81611612565b8114611978575f80fd5b50565b5f8151905061198981611965565b92915050565b5f602082840312156119a4576119a36111dd565b5b5f6119b18482850161197b565b91505092915050565b7f4d616e75666163747572657220494420646f6573206e6f7420657869737420695f8201527f6e2050726f647563745265676973747279000000000000000000000000000000602082015250565b5f611a14603183611372565b9150611a1f826119ba565b604082019050919050565b5f6020820190508181035f830152611a4181611a08565b9050919050565b5f819050815f5260205f209050919050565b5f6020601f8301049050919050565b5f82821b905092915050565b5f60088302611aa47fffffffffffffffffffffffffffffffffffffffffffffffffffffffffffffffff82611a69565b611aae8683611a69565b95508019841693508086168417925050509392505050565b5f611ae0611adb611ad6846115e1565b6116b9565b6115e1565b9050919050565b5f819050919050565b611af983611ac6565b611b0d611b0582611ae7565b848454611a75565b825550505050565b5f90565b611b21611b15565b611b2c818484611af0565b505050565b5b81811015611b4f57611b445f82611b19565b600181019050611b32565b5050565b601f821115611b9457611b6581611a48565b611b6e84611a5a565b81016020851015611b7d578190505b611b91611b8985611a5a565b830182611b31565b50505b505050565b5f82821c905092915050565b5f611bb45f1984600802611b99565b1980831691505092915050565b5f611bcc8383611ba5565b9150826002028217905092915050565b611be582611368565b67ffffffffffffffff811115611bfe57611bfd6111fd565b5b611c088254611787565b611c13828285611b53565b5f60209050601f831160018114611c44575f8415611c32578287015190505b611c3c8582611bc1565b865550611ca3565b601f198416611c5286611a48565b5f5b82811015611c7957848901518255600182019150602085019450602081019050611c54565b86831015611c965784890151611c92601f891682611ba5565b8355505b6001600288020188555050505b505050505050565b7f496e646578206f7574206f662072616e676500000000000000000000000000005f82015250565b5f611cdf601283611372565b9150611cea82611cab565b602082019050919050565b5f6020820190508181035f830152611d0c81611cd3565b905091905056fea2646970667358221220262ff526b8650e45e4ae1a265f7684ca20991cdb077a1cf065289ebd316b592d64736f6c63430008150033",
  "immutableReferences": {},
  "source": "// SPDX-License-Identifier: MIT\r\npragma solidity ^0.8.21;\r\n\r\nimport \"./ProductRegistry.sol\";\r\n\r\ncontract SellerRegistry {\r\n    struct Seller {\r\n        string name;\r\n        string brand;\r\n        string code;\r\n        string phone;\r\n        string manager;\r\n        string addr;\r\n        string manufacturerID;\r\n    }\r\n\r\n    Seller[] public sellers;\r\n    ProductRegistry public productRegistry;\r\n\r\n    constructor(address _productRegistryAddress) {\r\n        productRegistry = ProductRegistry(_productRegistryAddress);\r\n    }\r\n\r\n    function registerSeller(\r\n        string memory _name,\r\n        string memory _brand,\r\n        string memory _code,\r\n        string memory _phone,\r\n        string memory _manager,\r\n        string memory _addr,\r\n        string memory _manufacturerID\r\n    ) public {\r\n        require(\r\n            productRegistry.manufacturerExists(_manufacturerID),\r\n            \"Manufacturer ID does not exist in ProductRegistry\"\r\n        );\r\n\r\n        sellers.push(Seller(_name, _brand, _code, _phone, _manager, _addr, _manufacturerID));\r\n    }\r\n\r\n    function getSeller(uint index)\r\n        public\r\n        view\r\n        returns (\r\n            string memory,\r\n            string memory,\r\n            string memory,\r\n            string memory,\r\n            string memory,\r\n            string memory,\r\n            string memory\r\n        )\r\n    {\r\n        require(index < sellers.length, \"Index out of range\");\r\n        Seller memory s = sellers[index];\r\n        return (s.name, s.brand, s.code, s.phone, s.manager, s.addr, s.manufacturerID);\r\n    }\r\n\r\n    function getSellerCount() public view returns (uint) {\r\n        return sellers.length;\r\n    }\r\n\r\n    function sellerExists(string memory sellerCode) public view returns (bool) {\r\n        for (uint i = 0; i < sellers.length; i++) {\r\n            if (keccak256(bytes(sellers[i].code)) == keccak256(bytes(sellerCode))) {\r\n                return true;\r\n            }\r\n        }\r\n        return false;\r\n    }\r\n\r\n    function getSellerByCode(string memory sellerCode)\r\n        public\r\n        view\r\n        returns (\r\n            string memory,\r\n            string memory,\r\n            string memory,\r\n            string memory,\r\n            string memory,\r\n            string memory,\r\n            string memory\r\n        )\r\n    {\r\n        for (uint i = 0; i < sellers.length; i++) {\r\n            if (keccak256(bytes(sellers[i].code)) == keccak256(bytes(sellerCode))) {\r\n                Seller memory s = sellers[i];\r\n                return (s.name, s.brand, s.code, s.phone, s.manager, s.addr, s.manufacturerID);\r\n            }\r\n        }\r\n        revert(\"Seller not found\");\r\n    }\r\n}\r\n",
  "sourcePath": "T:\\Fake-Product-Identification-By-QR-code-using-blockchain\\supplychain-blockchain\\contracts\\SellerRegistry.sol",
  "compiler": {
    "name": "solc",
    "version": "0.8.21+commit.d9974bed.Emscripten.clang"
  },
  "schemaVersion": "3.4.16",
  "updatedAt": "2025-04-25T13:10:56.906Z",
  "networkType": "ethereum",
  "devdoc": {
    "kind": "dev",
    "methods": {},
    "version": 1
  },
  "userdoc": {
    "kind": "user",
    "methods": {},
    "version": 1
  }
}