{
  "contractName": "SellProductToSeller",
  "abi": [
    {
      "anonymous": false,
      "inputs": [
        {
          "indexed": false,
          "internalType": "string",
          "name": "productSN",
          "type": "string"
        },
        {
          "indexed": false,
          "internalType": "string",
          "name": "sellerCode",
          "type": "string"
        },
        {
          "indexed": false,
          "internalType": "address",
          "name": "manufacturer",
          "type": "address"
        },
        {
          "indexed": false,
          "internalType": "uint256",
          "name": "timestamp",
          "type": "uint256"
        }
      ],
      "name": "ProductSold",
      "type": "event"
    },
    {
      "inputs": [
        {
          "internalType": "uint256",
          "name": "",
          "type": "uint256"
        }
      ],
      "name": "transfers",
      "outputs": [
        {
          "internalType": "string",
          "name": "productSN",
          "type": "string"
        },
        {
          "internalType": "string",
          "name": "sellerCode",
          "type": "string"
        },
        {
          "internalType": "address",
          "name": "manufacturer",
          "type": "address"
        },
        {
          "internalType": "uint256",
          "name": "timestamp",
          "type": "uint256"
        }
      ],
      "stateMutability": "view",
      "type": "function",
      "constant": true
    },
    {
      "inputs": [
        {
          "internalType": "string",
          "name": "productSN",
          "type": "string"
        },
        {
          "internalType": "string",
          "name": "sellerCode",
          "type": "string"
        }
      ],
      "name": "sellProduct",
      "outputs": [],
      "stateMutability": "nonpayable",
      "type": "function"
    },
    {
      "inputs": [],
      "name": "getAllTransfers",
      "outputs": [
        {
          "components": [
            {
              "internalType": "string",
              "name": "productSN",
              "type": "string"
            },
            {
              "internalType": "string",
              "name": "sellerCode",
              "type": "string"
            },
            {
              "internalType": "address",
              "name": "manufacturer",
              "type": "address"
            },
            {
              "internalType": "uint256",
              "name": "timestamp",
              "type": "uint256"
            }
          ],
          "internalType": "struct SellProductToSeller.ProductTransfer[]",
          "name": "",
          "type": "tuple[]"
        }
      ],
      "stateMutability": "view",
      "type": "function",
      "constant": true
    },
    {
      "inputs": [],
      "name": "getTransferCount",
      "outputs": [
        {
          "internalType": "uint256",
          "name": "",
          "type": "uint256"
        }
      ],
      "stateMutability": "view",
      "type": "function",
      "constant": true
    }
  ],
  "bytecode": "0x608060405234801561000f575f80fd5b50610d3c8061001d5f395ff3fe608060405234801561000f575f80fd5b506004361061004a575f3560e01c8063040e55f51461004e57806354b4aa4a1461006c57806366223e511461008a5780639377d711146100a6575b5f80fd5b6100566100d9565b604051610063919061055a565b60405180910390f35b6100746100e4565b604051610081919061076d565b60405180910390f35b6100a4600480360381019061009f91906108ca565b6102bd565b005b6100c060048036038101906100bb919061096a565b6103dd565b6040516100d094939291906109ec565b60405180910390f35b5f8080549050905090565b60605f805480602002602001604051908101604052809291908181526020015f905b828210156102b4578382905f5260205f2090600402016040518060800160405290815f8201805461013690610a6a565b80601f016020809104026020016040519081016040528092919081815260200182805461016290610a6a565b80156101ad5780601f10610184576101008083540402835291602001916101ad565b820191905f5260205f20905b81548152906001019060200180831161019057829003601f168201915b505050505081526020016001820180546101c690610a6a565b80601f01602080910402602001604051908101604052809291908181526020018280546101f290610a6a565b801561023d5780601f106102145761010080835404028352916020019161023d565b820191905f5260205f20905b81548152906001019060200180831161022057829003601f168201915b50505050508152602001600282015f9054906101000a900473ffffffffffffffffffffffffffffffffffffffff1673ffffffffffffffffffffffffffffffffffffffff1673ffffffffffffffffffffffffffffffffffffffff16815260200160038201548152505081526020019060010190610106565b50505050905090565b5f60405180608001604052808481526020018381526020013373ffffffffffffffffffffffffffffffffffffffff1681526020014281525090505f81908060018154018082558091505060019003905f5260205f2090600402015f909190919091505f820151815f0190816103329190610c37565b5060208201518160010190816103489190610c37565b506040820151816002015f6101000a81548173ffffffffffffffffffffffffffffffffffffffff021916908373ffffffffffffffffffffffffffffffffffffffff1602179055506060820151816003015550507f627759da825d4d1b77d6a0ca6979a480ec274b4beff7e91303bd2966cf3d18db838333426040516103d094939291906109ec565b60405180910390a1505050565b5f81815481106103eb575f80fd5b905f5260205f2090600402015f91509050805f01805461040a90610a6a565b80601f016020809104026020016040519081016040528092919081815260200182805461043690610a6a565b80156104815780601f1061045857610100808354040283529160200191610481565b820191905f5260205f20905b81548152906001019060200180831161046457829003601f168201915b50505050509080600101805461049690610a6a565b80601f01602080910402602001604051908101604052809291908181526020018280546104c290610a6a565b801561050d5780601f106104e45761010080835404028352916020019161050d565b820191905f5260205f20905b8154815290600101906020018083116104f057829003601f168201915b505050505090806002015f9054906101000a900473ffffffffffffffffffffffffffffffffffffffff16908060030154905084565b5f819050919050565b61055481610542565b82525050565b5f60208201905061056d5f83018461054b565b92915050565b5f81519050919050565b5f82825260208201905092915050565b5f819050602082019050919050565b5f81519050919050565b5f82825260208201905092915050565b5f5b838110156105d35780820151818401526020810190506105b8565b5f8484015250505050565b5f601f19601f8301169050919050565b5f6105f88261059c565b61060281856105a6565b93506106128185602086016105b6565b61061b816105de565b840191505092915050565b5f73ffffffffffffffffffffffffffffffffffffffff82169050919050565b5f61064f82610626565b9050919050565b61065f81610645565b82525050565b61066e81610542565b82525050565b5f608083015f8301518482035f86015261068e82826105ee565b915050602083015184820360208601526106a882826105ee565b91505060408301516106bd6040860182610656565b5060608301516106d06060860182610665565b508091505092915050565b5f6106e68383610674565b905092915050565b5f602082019050919050565b5f61070482610573565b61070e818561057d565b9350836020820285016107208561058d565b805f5b8581101561075b578484038952815161073c85826106db565b9450610747836106ee565b925060208a01995050600181019050610723565b50829750879550505050505092915050565b5f6020820190508181035f83015261078581846106fa565b905092915050565b5f604051905090565b5f80fd5b5f80fd5b5f80fd5b5f80fd5b7f4e487b71000000000000000000000000000000000000000000000000000000005f52604160045260245ffd5b6107dc826105de565b810181811067ffffffffffffffff821117156107fb576107fa6107a6565b5b80604052505050565b5f61080d61078d565b905061081982826107d3565b919050565b5f67ffffffffffffffff821115610838576108376107a6565b5b610841826105de565b9050602081019050919050565b828183375f83830152505050565b5f61086e6108698461081e565b610804565b90508281526020810184848401111561088a576108896107a2565b5b61089584828561084e565b509392505050565b5f82601f8301126108b1576108b061079e565b5b81356108c184826020860161085c565b91505092915050565b5f80604083850312156108e0576108df610796565b5b5f83013567ffffffffffffffff8111156108fd576108fc61079a565b5b6109098582860161089d565b925050602083013567ffffffffffffffff81111561092a5761092961079a565b5b6109368582860161089d565b9150509250929050565b61094981610542565b8114610953575f80fd5b50565b5f8135905061096481610940565b92915050565b5f6020828403121561097f5761097e610796565b5b5f61098c84828501610956565b91505092915050565b5f82825260208201905092915050565b5f6109af8261059c565b6109b98185610995565b93506109c98185602086016105b6565b6109d2816105de565b840191505092915050565b6109e681610645565b82525050565b5f6080820190508181035f830152610a0481876109a5565b90508181036020830152610a1881866109a5565b9050610a2760408301856109dd565b610a34606083018461054b565b95945050505050565b7f4e487b71000000000000000000000000000000000000000000000000000000005f52602260045260245ffd5b5f6002820490506001821680610a8157607f821691505b602082108103610a9457610a93610a3d565b5b50919050565b5f819050815f5260205f209050919050565b5f6020601f8301049050919050565b5f82821b905092915050565b5f60088302610af67fffffffffffffffffffffffffffffffffffffffffffffffffffffffffffffffff82610abb565b610b008683610abb565b95508019841693508086168417925050509392505050565b5f819050919050565b5f610b3b610b36610b3184610542565b610b18565b610542565b9050919050565b5f819050919050565b610b5483610b21565b610b68610b6082610b42565b848454610ac7565b825550505050565b5f90565b610b7c610b70565b610b87818484610b4b565b505050565b5b81811015610baa57610b9f5f82610b74565b600181019050610b8d565b5050565b601f821115610bef57610bc081610a9a565b610bc984610aac565b81016020851015610bd8578190505b610bec610be485610aac565b830182610b8c565b50505b505050565b5f82821c905092915050565b5f610c0f5f1984600802610bf4565b1980831691505092915050565b5f610c278383610c00565b9150826002028217905092915050565b610c408261059c565b67ffffffffffffffff811115610c5957610c586107a6565b5b610c638254610a6a565b610c6e828285610bae565b5f60209050601f831160018114610c9f575f8415610c8d578287015190505b610c978582610c1c565b865550610cfe565b601f198416610cad86610a9a565b5f5b82811015610cd457848901518255600182019150602085019450602081019050610caf565b86831015610cf15784890151610ced601f891682610c00565b8355505b6001600288020188555050505b50505050505056fea2646970667358221220d3b153b937ab3cd0d39df068e17d4c935df31813a39e66f8a0c5438e5827e82e64736f6c63430008150033",
  "immutableReferences": {},
  "source": "// SPDX-License-Identifier: MIT\r\npragma solidity ^0.8.21;\r\n\r\ncontract SellProductToSeller {\r\n    struct ProductTransfer {\r\n        string productSN;\r\n        string sellerCode;\r\n        address manufacturer;\r\n        uint256 timestamp;\r\n    }\r\n\r\n    ProductTransfer[] public transfers;\r\n\r\n    event ProductSold(string productSN, string sellerCode, address manufacturer, uint256 timestamp);\r\n\r\n    function sellProduct(string memory productSN, string memory sellerCode) public {\r\n        ProductTransfer memory newTransfer = ProductTransfer({\r\n            productSN: productSN,\r\n            sellerCode: sellerCode,\r\n            manufacturer: msg.sender,\r\n            timestamp: block.timestamp\r\n        });\r\n\r\n        transfers.push(newTransfer);\r\n\r\n        emit ProductSold(productSN, sellerCode, msg.sender, block.timestamp);\r\n    }\r\n\r\n    function getAllTransfers() public view returns (ProductTransfer[] memory) {\r\n        return transfers;\r\n    }\r\n\r\n    function getTransferCount() public view returns (uint) {\r\n        return transfers.length;\r\n    }\r\n}\r\n",
  "sourcePath": "C:\\Users\\tarun\\projects\\supplychain-blockchain\\contracts\\SellProductToSeller.sol",
  "compiler": {
    "name": "solc",
    "version": "0.8.21+commit.d9974bed.Emscripten.clang"
  },
  "schemaVersion": "3.4.16",
  "updatedAt": "2025-04-11T17:40:09.329Z",
  "networkType": "ethereum",
  "devdoc": {
    "kind": "dev",
    "methods": {},
    "version": 1
  },
  "userdoc": {
    "kind": "user",
    "methods": {},
    "version": 1
  }
}